{
    "abi": [
        {
            "inputs": [
                {
                    "internalType": "address[]",
                    "name": "pools",
                    "type": "address[]"
                },
                {
                    "internalType": "address[]",
                    "name": "dexes",
                    "type": "address[]"
                },
                {
                    "internalType": "bool[]",
                    "name": "dexIsUniV3",
                    "type": "bool[]"
                },
                {
                    "internalType": "address",
                    "name": "weth",
                    "type": "address"
                },
                {
                    "internalType": "uint256",
                    "name": "wethInPoolThreshold",
                    "type": "uint256"
                }
            ],
            "stateMutability": "nonpayable",
            "type": "constructor"
        },
        {
            "inputs": [
                {
                    "internalType": "address",
                    "name": "",
                    "type": "address"
                }
            ],
            "name": "tokenToWethPrices",
            "outputs": [
                {
                    "internalType": "uint128",
                    "name": "",
                    "type": "uint128"
                }
            ],
            "stateMutability": "view",
            "type": "function"
        }
    ],
    "bytecode": {
        "object": "0x60806040523480156200001157600080fd5b5060405162002141380380620021418339818101604052810190620000379190620017d3565b6000855167ffffffffffffffff811115620000575762000056620014c1565b5b604051908082528060200260200182016040528015620000865781602001602082028036833780820191505090505b50905060005b86518110156200037157620000c4878281518110620000b057620000af620018b8565b5b6020026020010151620003a260201b60201c565b62000338576000878281518110620000e157620000e0620018b8565b5b602002602001015173ffffffffffffffffffffffffffffffffffffffff16630dfe16816040518163ffffffff1660e01b8152600401602060405180830381865afa15801562000134573d6000803e3d6000fd5b505050506040513d601f19601f820116820180604052508101906200015a9190620018e7565b90506000888381518110620001745762000173620018b8565b5b602002602001015173ffffffffffffffffffffffffffffffffffffffff1663d21220a76040518163ffffffff1660e01b8152600401602060405180830381865afa158015620001c7573d6000803e3d6000fd5b505050506040513d601f19601f82011682018060405250810190620001ed9190620018e7565b90506200020082620003a260201b60201c565b1580156200021c57506200021a81620003a260201b60201c565b155b156200030b57600080620002558b86815181106200023f576200023e620018b8565b5b60200260200101518585620003d760201b60201c565b91509150600062000271858a858e8e8d6200048e60201b60201c565b905060006200028b858b858f8f8e6200048e60201b60201c565b905060008214158015620002a0575060008114155b15620002dc578082620002b4919062001948565b888881518110620002ca57620002c9620018b8565b5b60200260200101818152505062000301565b6000888881518110620002f457620002f3620018b8565b5b6020026020010181815250505b5050505062000330565b6000848481518110620003235762000322620018b8565b5b6020026020010181815250505b50506200035d565b600082828151811062000350576200034f620018b8565b5b6020026020010181815250505b80620003699062001983565b90506200008c565b5060008160405160200162000387919062001a9e565b60405160208183030381529060405290506020810180590381f35b6000808273ffffffffffffffffffffffffffffffffffffffff163b03620003cd5760019050620003d2565b600090505b919050565b600080600080620003f08787876200064660201b60201c565b915091506200048082828773ffffffffffffffffffffffffffffffffffffffff168973ffffffffffffffffffffffffffffffffffffffff161062000435578762000437565b885b8873ffffffffffffffffffffffffffffffffffffffff168a73ffffffffffffffffffffffffffffffffffffffff161062000472578962000474565b885b620007f360201b60201c565b935093505050935093915050565b60008573ffffffffffffffffffffffffffffffffffffffff168773ffffffffffffffffffffffffffffffffffffffff1603620004cd578490506200063c565b60008060008973ffffffffffffffffffffffffffffffffffffffff1673ffffffffffffffffffffffffffffffffffffffff16815260200190815260200160002060009054906101000a90046fffffffffffffffffffffffffffffffff1690506001816fffffffffffffffffffffffffffffffff1603620005525760009150506200063c565b6000816fffffffffffffffffffffffffffffffff161462000588576200057f81876200091960201b60201c565b9150506200063c565b60005b855181101562000635576000620005e68a8a898581518110620005b357620005b2620018b8565b5b6020026020010151898681518110620005d157620005d0620018b8565b5b60200260200101518962000a7360201b60201c565b90506000816fffffffffffffffffffffffffffffffff161462000620576200061581896200091960201b60201c565b93505050506200063c565b50806200062d9062001983565b90506200058b565b5060009150505b9695505050505050565b6000808273ffffffffffffffffffffffffffffffffffffffff168473ffffffffffffffffffffffffffffffffffffffff16106200068557828462000688565b83835b8094508195505050600080620006a48762000e3860201b60201c565b1562000752576000808873ffffffffffffffffffffffffffffffffffffffff16630902f1ac6040518163ffffffff1660e01b8152600401606060405180830381865afa158015620006f9573d6000803e3d6000fd5b505050506040513d601f19601f820116820180604052508101906200071f919062001b4e565b5091509150816dffffffffffffffffffffffffffff169350806dffffffffffffffffffffffffffff1692505050620007e3565b60008062000767888a62000e7660201b60201c565b9150915060008062000780898c62000e7660201b60201c565b915091508280156200078f5750805b15620007de578873ffffffffffffffffffffffffffffffffffffffff168a73ffffffffffffffffffffffffffffffffffffffff161015620007d657839550819450620007dd565b8394508195505b5b505050505b8181935093505050935093915050565b6000806000806200080a8662000fd760201b60201c565b91509150600080620008228762000fd760201b60201c565b91509150828015620008315750805b156200090c5760128460ff161115620008745760128462000853919062001bb7565b600a62000861919062001d47565b8a6200086e919062001dc7565b6200089f565b83601262000883919062001bb7565b600a62000891919062001d47565b8a6200089e919062001dff565b5b955060128260ff161115620008de57601282620008bd919062001bb7565b600a620008cb919062001d47565b89620008d8919062001dc7565b62000909565b816012620008ed919062001bb7565b600a620008fb919062001d47565b8962000908919062001dff565b5b94505b5050505094509492505050565b6000808214806200093c57506000836fffffffffffffffffffffffffffffffff16145b156200094c576000905062000a6d565b600060406fffffffffffffffffffffffffffffffff8416856fffffffffffffffffffffffffffffffff1602901c90506000608084901c856fffffffffffffffffffffffffffffffff1602905077ffffffffffffffffffffffffffffffffffffffffffffffff811115620009f6576040517f08c379a0000000000000000000000000000000000000000000000000000000008152600401620009ed9062001ec1565b60405180910390fd5b604081901b9050817fffffffffffffffffffffffffffffffffffffffffffffffffffffffffffffffff0381111562000a65576040517f08c379a000000000000000000000000000000000000000000000000000000000815260040162000a5c9062001f33565b60405180910390fd5b818101925050505b92915050565b6000821562000c6757600060405180606001604052806101f461ffff168152602001610bb861ffff16815260200161271061ffff16815250905060005b600381101562000c5f5760008673ffffffffffffffffffffffffffffffffffffffff16631698ee828973ffffffffffffffffffffffffffffffffffffffff168b73ffffffffffffffffffffffffffffffffffffffff161062000b13578962000b15565b8a5b8a73ffffffffffffffffffffffffffffffffffffffff168c73ffffffffffffffffffffffffffffffffffffffff161062000b50578b62000b52565b8a5b86866003811062000b685762000b67620018b8565b5b60200201516040518463ffffffff1660e01b815260040162000b8d9392919062001fc6565b602060405180830381865afa15801562000bab573d6000803e3d6000fd5b505050506040513d601f19601f8201168201806040525081019062000bd19190620018e7565b9050600073ffffffffffffffffffffffffffffffffffffffff168173ffffffffffffffffffffffffffffffffffffffff161462000c4a57600062000c1e8a8a84896200114f60201b60201c565b90506000816fffffffffffffffffffffffffffffffff161462000c48578094505050505062000e2f565b505b508062000c579062001983565b905062000ab0565b505062000db4565b60008573ffffffffffffffffffffffffffffffffffffffff168773ffffffffffffffffffffffffffffffffffffffff1610905060008573ffffffffffffffffffffffffffffffffffffffff1663e6a439058362000cc5578862000cc7565b895b8462000cd4578a62000cd6565b895b6040518363ffffffff1660e01b815260040162000cf592919062002003565b602060405180830381865afa15801562000d13573d6000803e3d6000fd5b505050506040513d601f19601f8201168201806040525081019062000d399190620018e7565b9050600073ffffffffffffffffffffffffffffffffffffffff168173ffffffffffffffffffffffffffffffffffffffff161462000db157600062000d86898984886200114f60201b60201c565b90506000816fffffffffffffffffffffffffffffffff161462000daf5780935050505062000e2f565b505b50505b60016000808873ffffffffffffffffffffffffffffffffffffffff1673ffffffffffffffffffffffffffffffffffffffff16815260200190815260200160002060006101000a8154816fffffffffffffffffffffffffffffffff02191690836fffffffffffffffffffffffffffffffff160217905550600090505b95945050505050565b6000807fddca3f43000000000000000000000000000000000000000000000000000000006000526000806004600080875af190508015915050919050565b6000806000808573ffffffffffffffffffffffffffffffffffffffff168560405160240162000ea6919062002030565b6040516020818303038152906040527f70a08231000000000000000000000000000000000000000000000000000000007bffffffffffffffffffffffffffffffffffffffffffffffffffffffff19166020820180517bffffffffffffffffffffffffffffffffffffffffffffffffffffffff838183161783525050505060405162000f329190620020c6565b6000604051808303816000865af19150503d806000811462000f71576040519150601f19603f3d011682016040523d82523d6000602084013e62000f76565b606091505b5091509150811562000fc6576000602082510362000fb6578180602001905181019062000fa49190620020df565b90508060019450945050505062000fd0565b6000809450945050505062000fd0565b6000809350935050505b9250929050565b6000806000808473ffffffffffffffffffffffffffffffffffffffff166040516024016040516020818303038152906040527f313ce567000000000000000000000000000000000000000000000000000000007bffffffffffffffffffffffffffffffffffffffffffffffffffffffff19166020820180517bffffffffffffffffffffffffffffffffffffffffffffffffffffffff8381831617835250505050604051620010869190620020c6565b6000604051808303816000865af19150503d8060008114620010c5576040519150601f19603f3d011682016040523d82523d6000602084013e620010ca565b606091505b50915091508115620011405760006020825103620011305781806020019051810190620010f89190620020df565b905060008114806200110a575060ff81115b156200112057600080945094505050506200114a565b806001945094505050506200114a565b600080945094505050506200114a565b6000809350935050505b915091565b6000808473ffffffffffffffffffffffffffffffffffffffff168673ffffffffffffffffffffffffffffffffffffffff1610905060008062001199868989620003d760201b60201c565b915091508215620011c05784811015620011ba576000935050505062001286565b620011d7565b84821015620011d6576000935050505062001286565b5b60006200120784620011ea5783620011ec565b825b85620011f95783620011fb565b845b6200128e60201b60201c565b9050806000808b73ffffffffffffffffffffffffffffffffffffffff1673ffffffffffffffffffffffffffffffffffffffff16815260200190815260200160002060006101000a8154816fffffffffffffffffffffffffffffffff02191690836fffffffffffffffffffffffffffffffff160217905550809450505050505b949350505050565b6000808203620012a2576000905062001491565b600077ffffffffffffffffffffffffffffffffffffffffffffffff8411620012e45782604085901b81620012db57620012da62001d98565b5b04905062001468565b600060c09050600060c086901c905064010000000081106200130e57602081901c90506020820191505b6201000081106200132757601081901c90506010820191505b61010081106200133f57600881901c90506008820191505b601081106200135657600481901c90506004820191505b600481106200136d57600281901c90506002820191505b600281106200137d576001820191505b600160bf830360018703901c018260ff0387901b81620013a257620013a162001d98565b5b0492506fffffffffffffffffffffffffffffffff831115620013cb576000935050505062001491565b6000608086901c8402905060006fffffffffffffffffffffffffffffffff871685029050600060c089901c9050600060408a901b90508281101562001411576001820391505b8281039050608084901b9250828110156200142d576001820391505b8281039050608084901c821462001449576200144862002111565b5b8881816200145c576200145b62001d98565b5b04870196505050505050505b6fffffffffffffffffffffffffffffffff8111156200148c57600091505062001491565b809150505b92915050565b6000604051905090565b600080fd5b600080fd5b600080fd5b6000601f19601f8301169050919050565b7f4e487b7100000000000000000000000000000000000000000000000000000000600052604160045260246000fd5b620014fb82620014b0565b810181811067ffffffffffffffff821117156200151d576200151c620014c1565b5b80604052505050565b60006200153262001497565b9050620015408282620014f0565b919050565b600067ffffffffffffffff821115620015635762001562620014c1565b5b602082029050602081019050919050565b600080fd5b600073ffffffffffffffffffffffffffffffffffffffff82169050919050565b6000620015a68262001579565b9050919050565b620015b88162001599565b8114620015c457600080fd5b50565b600081519050620015d881620015ad565b92915050565b6000620015f5620015ef8462001545565b62001526565b905080838252602082019050602084028301858111156200161b576200161a62001574565b5b835b81811015620016485780620016338882620015c7565b8452602084019350506020810190506200161d565b5050509392505050565b600082601f8301126200166a5762001669620014ab565b5b81516200167c848260208601620015de565b91505092915050565b600067ffffffffffffffff821115620016a357620016a2620014c1565b5b602082029050602081019050919050565b60008115159050919050565b620016cb81620016b4565b8114620016d757600080fd5b50565b600081519050620016eb81620016c0565b92915050565b600062001708620017028462001685565b62001526565b905080838252602082019050602084028301858111156200172e576200172d62001574565b5b835b818110156200175b5780620017468882620016da565b84526020840193505060208101905062001730565b5050509392505050565b600082601f8301126200177d576200177c620014ab565b5b81516200178f848260208601620016f1565b91505092915050565b6000819050919050565b620017ad8162001798565b8114620017b957600080fd5b50565b600081519050620017cd81620017a2565b92915050565b600080600080600060a08688031215620017f257620017f1620014a1565b5b600086015167ffffffffffffffff811115620018135762001812620014a6565b5b620018218882890162001652565b955050602086015167ffffffffffffffff811115620018455762001844620014a6565b5b620018538882890162001652565b945050604086015167ffffffffffffffff811115620018775762001876620014a6565b5b620018858882890162001765565b93505060606200189888828901620015c7565b9250506080620018ab88828901620017bc565b9150509295509295909350565b7f4e487b7100000000000000000000000000000000000000000000000000000000600052603260045260246000fd5b6000602082840312156200190057620018ff620014a1565b5b60006200191084828501620015c7565b91505092915050565b7f4e487b7100000000000000000000000000000000000000000000000000000000600052601160045260246000fd5b6000620019558262001798565b9150620019628362001798565b92508282019050808211156200197d576200197c62001919565b5b92915050565b6000620019908262001798565b91507fffffffffffffffffffffffffffffffffffffffffffffffffffffffffffffffff8203620019c557620019c462001919565b5b600182019050919050565b600081519050919050565b600082825260208201905092915050565b6000819050602082019050919050565b62001a078162001798565b82525050565b600062001a1b8383620019fc565b60208301905092915050565b6000602082019050919050565b600062001a4182620019d0565b62001a4d8185620019db565b935062001a5a83620019ec565b8060005b8381101562001a9157815162001a75888262001a0d565b975062001a828362001a27565b92505060018101905062001a5e565b5085935050505092915050565b6000602082019050818103600083015262001aba818462001a34565b905092915050565b60006dffffffffffffffffffffffffffff82169050919050565b62001ae78162001ac2565b811462001af357600080fd5b50565b60008151905062001b078162001adc565b92915050565b600063ffffffff82169050919050565b62001b288162001b0d565b811462001b3457600080fd5b50565b60008151905062001b488162001b1d565b92915050565b60008060006060848603121562001b6a5762001b69620014a1565b5b600062001b7a8682870162001af6565b935050602062001b8d8682870162001af6565b925050604062001ba08682870162001b37565b9150509250925092565b600060ff82169050919050565b600062001bc48262001baa565b915062001bd18362001baa565b9250828203905060ff81111562001bed5762001bec62001919565b5b92915050565b60008160011c9050919050565b6000808291508390505b600185111562001c525780860481111562001c2a5762001c2962001919565b5b600185161562001c3a5780820291505b808102905062001c4a8562001bf3565b945062001c0a565b94509492505050565b60008262001c6d576001905062001d40565b8162001c7d576000905062001d40565b816001811462001c96576002811462001ca15762001cd7565b600191505062001d40565b60ff84111562001cb65762001cb562001919565b5b8360020a91508482111562001cd05762001ccf62001919565b5b5062001d40565b5060208310610133831016604e8410600b841016171562001d115782820a90508381111562001d0b5762001d0a62001919565b5b62001d40565b62001d20848484600162001c00565b9250905081840481111562001d3a5762001d3962001919565b5b81810290505b9392505050565b600062001d548262001798565b915062001d618362001baa565b925062001d907fffffffffffffffffffffffffffffffffffffffffffffffffffffffffffffffff848462001c5b565b905092915050565b7f4e487b7100000000000000000000000000000000000000000000000000000000600052601260045260246000fd5b600062001dd48262001798565b915062001de18362001798565b92508262001df45762001df362001d98565b5b828204905092915050565b600062001e0c8262001798565b915062001e198362001798565b9250817fffffffffffffffffffffffffffffffffffffffffffffffffffffffffffffffff048311821515161562001e555762001e5462001919565b5b828202905092915050565b600082825260208201905092915050565b7f6f766572666c6f772d3020696e206d756c363475000000000000000000000000600082015250565b600062001ea960148362001e60565b915062001eb68262001e71565b602082019050919050565b6000602082019050818103600083015262001edc8162001e9a565b9050919050565b7f6f766572666c6f772d3120696e206d756c363475000000000000000000000000600082015250565b600062001f1b60148362001e60565b915062001f288262001ee3565b602082019050919050565b6000602082019050818103600083015262001f4e8162001f0c565b9050919050565b62001f608162001599565b82525050565b600061ffff82169050919050565b600062ffffff82169050919050565b6000819050919050565b600062001fae62001fa862001fa28462001f66565b62001f83565b62001f74565b9050919050565b62001fc08162001f8d565b82525050565b600060608201905062001fdd600083018662001f55565b62001fec602083018562001f55565b62001ffb604083018462001fb5565b949350505050565b60006040820190506200201a600083018562001f55565b62002029602083018462001f55565b9392505050565b600060208201905062002047600083018462001f55565b92915050565b600081519050919050565b600081905092915050565b60005b838110156200208357808201518184015260208101905062002066565b60008484015250505050565b60006200209c826200204d565b620020a8818562002058565b9350620020ba81856020860162002063565b80840191505092915050565b6000620020d482846200208f565b915081905092915050565b600060208284031215620020f857620020f7620014a1565b5b60006200210884828501620017bc565b91505092915050565b7f4e487b7100000000000000000000000000000000000000000000000000000000600052600160045260246000fdfe",
        "linkReferences": {}
    },
    "deployedBytecode": {
        "object": "0x608060405234801561001057600080fd5b506004361061002b5760003560e01c80630ed45c8e14610030575b600080fd5b61004a600480360381019061004591906100f2565b610060565b604051610057919061014a565b60405180910390f35b60006020528060005260406000206000915054906101000a90046fffffffffffffffffffffffffffffffff1681565b600080fd5b600073ffffffffffffffffffffffffffffffffffffffff82169050919050565b60006100bf82610094565b9050919050565b6100cf816100b4565b81146100da57600080fd5b50565b6000813590506100ec816100c6565b92915050565b6000602082840312156101085761010761008f565b5b6000610116848285016100dd565b91505092915050565b60006fffffffffffffffffffffffffffffffff82169050919050565b6101448161011f565b82525050565b600060208201905061015f600083018461013b565b9291505056fea26469706673582212201feeff4a9debb9746a78df3563ed42667e85e2cc33e884d56e4c80da3ca5421764736f6c63430008100033",
        "linkReferences": {}
    },
    "methodIdentifiers": {
        "tokenToWethPrices(address)": "0ed45c8e"
    },
    "id": 0
}