{"abi":[{"type":"constructor","inputs":[{"name":"pools","type":"address[]","internalType":"address[]"},{"name":"dexes","type":"address[]","internalType":"address[]"},{"name":"dexIsUniV3","type":"bool[]","internalType":"bool[]"},{"name":"weth","type":"address","internalType":"address"},{"name":"wethInPoolThreshold","type":"uint256","internalType":"uint256"}],"stateMutability":"nonpayable"},{"type":"function","name":"tokenToWethPrices","inputs":[{"name":"","type":"address","internalType":"address"}],"outputs":[{"name":"","type":"uint128","internalType":"uint128"}],"stateMutability":"view"}],"bytecode":{"object":"0x608060405234801561001057600080fd5b5060405161255138038061255183398181016040528101906100329190611a8f565b6000855167ffffffffffffffff81111561004f5761004e6117bd565b5b60405190808252806020026020018201604052801561007d5781602001602082028036833780820191505090505b50905060005b865181101561037f576100b58782815181106100a2576100a1611b5e565b5b60200260200101516103ae60201b60201c565b156100e05760008282815181106100cf576100ce611b5e565b5b602002602001018181525050610374565b6101098782815181106100f6576100f5611b5e565b5b602002602001015161045f60201b60201c565b61035157600087828151811061012257610121611b5e565b5b602002602001015173ffffffffffffffffffffffffffffffffffffffff16630dfe16816040518163ffffffff1660e01b8152600401602060405180830381865afa158015610174573d6000803e3d6000fd5b505050506040513d601f19601f820116820180604052508101906101989190611b8d565b905060008883815181106101af576101ae611b5e565b5b602002602001015173ffffffffffffffffffffffffffffffffffffffff1663d21220a76040518163ffffffff1660e01b8152600401602060405180830381865afa158015610201573d6000803e3d6000fd5b505050506040513d601f19601f820116820180604052508101906102259190611b8d565b90506102368261045f60201b60201c565b15801561024f575061024d8161045f60201b60201c565b155b15610328576000806102828b868151811061026d5761026c611b5e565b5b6020026020010151858561049260201b60201c565b91509150600061029c858a858e8e8d61054160201b60201c565b905060006102b4858b858f8f8e61054160201b60201c565b9050600082141580156102c8575060008114155b156102fd5780826102d99190611be9565b8888815181106102ec576102eb611b5e565b5b60200260200101818152505061031f565b600088888151811061031257610311611b5e565b5b6020026020010181815250505b5050505061034a565b600084848151811061033d5761033c611b5e565b5b6020026020010181815250505b5050610373565b600082828151811061036657610365611b5e565b5b6020026020010181815250505b5b806001019050610083565b506000816040516020016103939190611cdb565b60405160208183030381529060405290506020810180590381f35b60006103bf826106db60201b60201c565b6104555760008273ffffffffffffffffffffffffffffffffffffffff16631a6865026040518163ffffffff1660e01b8152600401602060405180830381865afa158015610410573d6000803e3d6000fd5b505050506040513d601f19601f820116820180604052508101906104349190611d45565b6fffffffffffffffffffffffffffffffff1603610454576001905061045a565b5b600090505b919050565b6000808273ffffffffffffffffffffffffffffffffffffffff163b03610488576001905061048d565b600090505b919050565b6000806000806104a987878761071960201b60201c565b9150915061053382828773ffffffffffffffffffffffffffffffffffffffff168973ffffffffffffffffffffffffffffffffffffffff16106104eb57876104ed565b885b8873ffffffffffffffffffffffffffffffffffffffff168a73ffffffffffffffffffffffffffffffffffffffff16106105265789610528565b885b6108b560201b60201c565b935093505050935093915050565b60008573ffffffffffffffffffffffffffffffffffffffff168773ffffffffffffffffffffffffffffffffffffffff160361057e578490506106d1565b60008060008973ffffffffffffffffffffffffffffffffffffffff1673ffffffffffffffffffffffffffffffffffffffff16815260200190815260200160002060009054906101000a90046fffffffffffffffffffffffffffffffff1690506001816fffffffffffffffffffffffffffffffff16036106015760009150506106d1565b6000816fffffffffffffffffffffffffffffffff16146106335761062b81876109b960201b60201c565b9150506106d1565b60005b85518110156106ca5760006106888a8a89858151811061065957610658611b5e565b5b602002602001015189868151811061067457610673611b5e565b5b602002602001015189610b0a60201b60201c565b90506000816fffffffffffffffffffffffffffffffff16146106be576106b481896109b960201b60201c565b93505050506106d1565b50806001019050610636565b5060009150505b9695505050505050565b6000807fddca3f43000000000000000000000000000000000000000000000000000000006000526000806004600080875af190508015915050919050565b6000808273ffffffffffffffffffffffffffffffffffffffff168473ffffffffffffffffffffffffffffffffffffffff1610610756578284610759565b83835b8094508195505050600080610773876106db60201b60201c565b1561081c576000808873ffffffffffffffffffffffffffffffffffffffff16630902f1ac6040518163ffffffff1660e01b8152600401606060405180830381865afa1580156107c6573d6000803e3d6000fd5b505050506040513d601f19601f820116820180604052508101906107ea9190611df4565b5091509150816dffffffffffffffffffffffffffff169350806dffffffffffffffffffffffffffff16925050506108a5565b60008061082f888a610ea660201b60201c565b91509150600080610846898c610ea660201b60201c565b915091508280156108545750805b156108a0578873ffffffffffffffffffffffffffffffffffffffff168a73ffffffffffffffffffffffffffffffffffffffff1610156108985783955081945061089f565b8394508195505b5b505050505b8181935093505050935093915050565b6000806000806108ca86610ffb60201b60201c565b915091506000806108e087610ffb60201b60201c565b915091508280156108ee5750805b156109ac5760128460ff1611156109285760128461090c9190611e54565b600a6109189190611fbc565b8a6109239190612036565b61094d565b8360126109359190611e54565b600a6109419190611fbc565b8a61094c9190612067565b5b955060128260ff161115610984576012826109689190611e54565b600a6109749190611fbc565b8961097f9190612036565b6109a9565b8160126109919190611e54565b600a61099d9190611fbc565b896109a89190612067565b5b94505b5050505094509492505050565b6000808214806109db57506000836fffffffffffffffffffffffffffffffff16145b156109e95760009050610b04565b600060406fffffffffffffffffffffffffffffffff8416856fffffffffffffffffffffffffffffffff1602901c90506000608084901c856fffffffffffffffffffffffffffffffff1602905077ffffffffffffffffffffffffffffffffffffffffffffffff811115610a90576040517f08c379a0000000000000000000000000000000000000000000000000000000008152600401610a8790612106565b60405180910390fd5b604081901b9050817fffffffffffffffffffffffffffffffffffffffffffffffffffffffffffffffff03811115610afc576040517f08c379a0000000000000000000000000000000000000000000000000000000008152600401610af390612172565b60405180910390fd5b818101925050505b92915050565b60008215610ce257600060405180606001604052806101f461ffff168152602001610bb861ffff16815260200161271061ffff16815250905060005b6003811015610cdb5760008673ffffffffffffffffffffffffffffffffffffffff16631698ee828973ffffffffffffffffffffffffffffffffffffffff168b73ffffffffffffffffffffffffffffffffffffffff1610610ba65789610ba8565b8a5b8a73ffffffffffffffffffffffffffffffffffffffff168c73ffffffffffffffffffffffffffffffffffffffff1610610be1578b610be3565b8a5b868660038110610bf657610bf5611b5e565b5b60200201516040518463ffffffff1660e01b8152600401610c19939291906121f9565b602060405180830381865afa158015610c36573d6000803e3d6000fd5b505050506040513d601f19601f82011682018060405250810190610c5a9190611b8d565b9050600073ffffffffffffffffffffffffffffffffffffffff168173ffffffffffffffffffffffffffffffffffffffff1614610ccf576000610ca5878b8b858a61116a60201b60201c565b90506000816fffffffffffffffffffffffffffffffff1614610ccd5780945050505050610e9d565b505b50806001019050610b46565b5050610e22565b60008573ffffffffffffffffffffffffffffffffffffffff168773ffffffffffffffffffffffffffffffffffffffff1610905060008573ffffffffffffffffffffffffffffffffffffffff1663e6a4390583610d3e5788610d40565b895b84610d4b578a610d4d565b895b6040518363ffffffff1660e01b8152600401610d6a929190612230565b602060405180830381865afa158015610d87573d6000803e3d6000fd5b505050506040513d601f19601f82011682018060405250810190610dab9190611b8d565b9050600073ffffffffffffffffffffffffffffffffffffffff168173ffffffffffffffffffffffffffffffffffffffff1614610e1f576000610df6868a8a858961116a60201b60201c565b90506000816fffffffffffffffffffffffffffffffff1614610e1d57809350505050610e9d565b505b50505b60016000808873ffffffffffffffffffffffffffffffffffffffff1673ffffffffffffffffffffffffffffffffffffffff16815260200190815260200160002060006101000a8154816fffffffffffffffffffffffffffffffff02191690836fffffffffffffffffffffffffffffffff160217905550600090505b95945050505050565b6000806000808573ffffffffffffffffffffffffffffffffffffffff1685604051602401610ed49190612259565b6040516020818303038152906040527f70a08231000000000000000000000000000000000000000000000000000000007bffffffffffffffffffffffffffffffffffffffffffffffffffffffff19166020820180517bffffffffffffffffffffffffffffffffffffffffffffffffffffffff8381831617835250505050604051610f5e91906122e5565b6000604051808303816000865af19150503d8060008114610f9b576040519150601f19603f3d011682016040523d82523d6000602084013e610fa0565b606091505b50915091508115610fea5760006020825103610fdb5781806020019051810190610fca91906122fc565b905080600194509450505050610ff4565b60008094509450505050610ff4565b6000809350935050505b9250929050565b6000806000808473ffffffffffffffffffffffffffffffffffffffff16614e206040516024016040516020818303038152906040527f313ce567000000000000000000000000000000000000000000000000000000007bffffffffffffffffffffffffffffffffffffffffffffffffffffffff19166020820180517bffffffffffffffffffffffffffffffffffffffffffffffffffffffff83818316178352505050506040516110ab91906122e5565b60006040518083038160008787f1925050503d80600081146110e9576040519150601f19603f3d011682016040523d82523d6000602084013e6110ee565b606091505b5091509150811561115b576000602082510361114c578180602001905181019061111891906122fc565b90506000811480611129575060ff81115b1561113d5760008094509450505050611165565b80600194509450505050611165565b60008094509450505050611165565b6000809350935050505b915091565b6000808473ffffffffffffffffffffffffffffffffffffffff168673ffffffffffffffffffffffffffffffffffffffff1610905086611220576000806111b786898961049260201b60201c565b9150915082156111da57848110156111d5576000935050505061132a565b6111ef565b848210156111ee576000935050505061132a565b5b611217836111fd57826111ff565b815b8461120a578261120c565b835b61133360201b60201c565b935050506112b3565b60008473ffffffffffffffffffffffffffffffffffffffff16633850c7bd6040518163ffffffff1660e01b815260040160e060405180830381865afa15801561126d573d6000803e3d6000fd5b505050506040513d601f19601f8201168201806040525081019061129191906123e6565b505050505050905060406112ad82848a8a61152060201b60201c565b901c9250505b816000808873ffffffffffffffffffffffffffffffffffffffff1673ffffffffffffffffffffffffffffffffffffffff16815260200190815260200160002060006101000a8154816fffffffffffffffffffffffffffffffff02191690836fffffffffffffffffffffffffffffffff160217905550505b95945050505050565b6000808203611345576000905061151a565b600077ffffffffffffffffffffffffffffffffffffffffffffffff84116113825782604085901b8161137a57611379612007565b5b0490506114f3565b600060c09050600060c086901c905064010000000081106113ab57602081901c90506020820191505b6201000081106113c357601081901c90506010820191505b61010081106113da57600881901c90506008820191505b601081106113f057600481901c90506004820191505b6004811061140657600281901c90506002820191505b60028110611415576001820191505b600160bf830360018703901c018260ff0387901b8161143757611436612007565b5b0492506fffffffffffffffffffffffffffffffff83111561145e576000935050505061151a565b6000608086901c8402905060006fffffffffffffffffffffffffffffffff871685029050600060c089901c9050600060408a901b9050828110156114a3576001820391505b8281039050608084901b9250828110156114be576001820391505b8281039050608084901c82146114d7576114d6612488565b5b8881816114e7576114e6612007565b5b04870196505050505050505b6fffffffffffffffffffffffffffffffff81111561151557600091505061151a565b809150505b92915050565b6000808273ffffffffffffffffffffffffffffffffffffffff1663313ce5676040518163ffffffff1660e01b8152600401602060405180830381865afa15801561156e573d6000803e3d6000fd5b505050506040513d601f19601f8201168201806040525081019061159291906124b7565b8473ffffffffffffffffffffffffffffffffffffffff1663313ce5676040518163ffffffff1660e01b8152600401602060405180830381865afa1580156115dd573d6000803e3d6000fd5b505050506040513d601f19601f8201168201806040525081019061160191906124b7565b0390506000808260000b12611637578160ff16600a0a60028873ffffffffffffffffffffffffffffffffffffffff160a0261166b565b8160000360ff16600a0a60028873ffffffffffffffffffffffffffffffffffffffff160a8161166957611668612007565b5b045b90506000866116c6576c01000000000000000000000000828161169157611690612007565b5b046fffffffffffffffffffffffffffffffff6c0100000000000000000000000002816116c0576116bf612007565b5b046116e5565b6c0100000000000000000000000082816116e3576116e2612007565b5b045b9050866116f25780611723565b6c010000000000000000000000006fffffffffffffffffffffffffffffffff82028161172157611720612007565b5b045b93507fffffffffffffffffffffffffffffffffffffffffffffffffffffffffffffffff841115611788576040517f08c379a000000000000000000000000000000000000000000000000000000000815260040161177f90612530565b60405180910390fd5b505050949350505050565b6000604051905090565b600080fd5b600080fd5b600080fd5b6000601f19601f8301169050919050565b7f4e487b7100000000000000000000000000000000000000000000000000000000600052604160045260246000fd5b6117f5826117ac565b810181811067ffffffffffffffff82111715611814576118136117bd565b5b80604052505050565b6000611827611793565b905061183382826117ec565b919050565b600067ffffffffffffffff821115611853576118526117bd565b5b602082029050602081019050919050565b600080fd5b600073ffffffffffffffffffffffffffffffffffffffff82169050919050565b600061189482611869565b9050919050565b6118a481611889565b81146118af57600080fd5b50565b6000815190506118c18161189b565b92915050565b60006118da6118d584611838565b61181d565b905080838252602082019050602084028301858111156118fd576118fc611864565b5b835b81811015611926578061191288826118b2565b8452602084019350506020810190506118ff565b5050509392505050565b600082601f830112611945576119446117a7565b5b81516119558482602086016118c7565b91505092915050565b600067ffffffffffffffff821115611979576119786117bd565b5b602082029050602081019050919050565b60008115159050919050565b61199f8161198a565b81146119aa57600080fd5b50565b6000815190506119bc81611996565b92915050565b60006119d56119d08461195e565b61181d565b905080838252602082019050602084028301858111156119f8576119f7611864565b5b835b81811015611a215780611a0d88826119ad565b8452602084019350506020810190506119fa565b5050509392505050565b600082601f830112611a4057611a3f6117a7565b5b8151611a508482602086016119c2565b91505092915050565b6000819050919050565b611a6c81611a59565b8114611a7757600080fd5b50565b600081519050611a8981611a63565b92915050565b600080600080600060a08688031215611aab57611aaa61179d565b5b600086015167ffffffffffffffff811115611ac957611ac86117a2565b5b611ad588828901611930565b955050602086015167ffffffffffffffff811115611af657611af56117a2565b5b611b0288828901611930565b945050604086015167ffffffffffffffff811115611b2357611b226117a2565b5b611b2f88828901611a2b565b9350506060611b40888289016118b2565b9250506080611b5188828901611a7a565b9150509295509295909350565b7f4e487b7100000000000000000000000000000000000000000000000000000000600052603260045260246000fd5b600060208284031215611ba357611ba261179d565b5b6000611bb1848285016118b2565b91505092915050565b7f4e487b7100000000000000000000000000000000000000000000000000000000600052601160045260246000fd5b6000611bf482611a59565b9150611bff83611a59565b9250828201905080821115611c1757611c16611bba565b5b92915050565b600081519050919050565b600082825260208201905092915050565b6000819050602082019050919050565b611c5281611a59565b82525050565b6000611c648383611c49565b60208301905092915050565b6000602082019050919050565b6000611c8882611c1d565b611c928185611c28565b9350611c9d83611c39565b8060005b83811015611cce578151611cb58882611c58565b9750611cc083611c70565b925050600181019050611ca1565b5085935050505092915050565b60006020820190508181036000830152611cf58184611c7d565b905092915050565b60006fffffffffffffffffffffffffffffffff82169050919050565b611d2281611cfd565b8114611d2d57600080fd5b50565b600081519050611d3f81611d19565b92915050565b600060208284031215611d5b57611d5a61179d565b5b6000611d6984828501611d30565b91505092915050565b60006dffffffffffffffffffffffffffff82169050919050565b611d9581611d72565b8114611da057600080fd5b50565b600081519050611db281611d8c565b92915050565b600063ffffffff82169050919050565b611dd181611db8565b8114611ddc57600080fd5b50565b600081519050611dee81611dc8565b92915050565b600080600060608486031215611e0d57611e0c61179d565b5b6000611e1b86828701611da3565b9350506020611e2c86828701611da3565b9250506040611e3d86828701611ddf565b9150509250925092565b600060ff82169050919050565b6000611e5f82611e47565b9150611e6a83611e47565b9250828203905060ff811115611e8357611e82611bba565b5b92915050565b60008160011c9050919050565b6000808291508390505b6001851115611ee057808604811115611ebc57611ebb611bba565b5b6001851615611ecb5780820291505b8081029050611ed985611e89565b9450611ea0565b94509492505050565b600082611ef95760019050611fb5565b81611f075760009050611fb5565b8160018114611f1d5760028114611f2757611f56565b6001915050611fb5565b60ff841115611f3957611f38611bba565b5b8360020a915084821115611f5057611f4f611bba565b5b50611fb5565b5060208310610133831016604e8410600b8410161715611f8b5782820a905083811115611f8657611f85611bba565b5b611fb5565b611f988484846001611e96565b92509050818404811115611faf57611fae611bba565b5b81810290505b9392505050565b6000611fc782611a59565b9150611fd283611e47565b9250611fff7fffffffffffffffffffffffffffffffffffffffffffffffffffffffffffffffff8484611ee9565b905092915050565b7f4e487b7100000000000000000000000000000000000000000000000000000000600052601260045260246000fd5b600061204182611a59565b915061204c83611a59565b92508261205c5761205b612007565b5b828204905092915050565b600061207282611a59565b915061207d83611a59565b925082820261208b81611a59565b915082820484148315176120a2576120a1611bba565b5b5092915050565b600082825260208201905092915050565b7f6f766572666c6f772d3020696e206d756c363475000000000000000000000000600082015250565b60006120f06014836120a9565b91506120fb826120ba565b602082019050919050565b6000602082019050818103600083015261211f816120e3565b9050919050565b7f6f766572666c6f772d3120696e206d756c363475000000000000000000000000600082015250565b600061215c6014836120a9565b915061216782612126565b602082019050919050565b6000602082019050818103600083015261218b8161214f565b9050919050565b61219b81611889565b82525050565b600061ffff82169050919050565b600062ffffff82169050919050565b6000819050919050565b60006121e36121de6121d9846121a1565b6121be565b6121af565b9050919050565b6121f3816121c8565b82525050565b600060608201905061220e6000830186612192565b61221b6020830185612192565b61222860408301846121ea565b949350505050565b60006040820190506122456000830185612192565b6122526020830184612192565b9392505050565b600060208201905061226e6000830184612192565b92915050565b600081519050919050565b600081905092915050565b60005b838110156122a857808201518184015260208101905061228d565b60008484015250505050565b60006122bf82612274565b6122c9818561227f565b93506122d981856020860161228a565b80840191505092915050565b60006122f182846122b4565b915081905092915050565b6000602082840312156123125761231161179d565b5b600061232084828501611a7a565b91505092915050565b61233281611869565b811461233d57600080fd5b50565b60008151905061234f81612329565b92915050565b60008160020b9050919050565b61236b81612355565b811461237657600080fd5b50565b60008151905061238881612362565b92915050565b612397816121a1565b81146123a257600080fd5b50565b6000815190506123b48161238e565b92915050565b6123c381611e47565b81146123ce57600080fd5b50565b6000815190506123e0816123ba565b92915050565b600080600080600080600060e0888a0312156124055761240461179d565b5b60006124138a828b01612340565b97505060206124248a828b01612379565b96505060406124358a828b016123a5565b95505060606124468a828b016123a5565b94505060806124578a828b016123a5565b93505060a06124688a828b016123d1565b92505060c06124798a828b016119ad565b91505092959891949750929550565b7f4e487b7100000000000000000000000000000000000000000000000000000000600052600160045260246000fd5b6000602082840312156124cd576124cc61179d565b5b60006124db848285016123d1565b91505092915050565b7f4f766572666c6f77000000000000000000000000000000000000000000000000600082015250565b600061251a6008836120a9565b9150612525826124e4565b602082019050919050565b600060208201905081810360008301526125498161250d565b905091905056fe","linkReferences":{}},"deployedBytecode":{"object":"0x608060405234801561001057600080fd5b506004361061002b5760003560e01c80630ed45c8e14610030575b600080fd5b61004a600480360381019061004591906100f2565b610060565b604051610057919061014a565b60405180910390f35b60006020528060005260406000206000915054906101000a90046fffffffffffffffffffffffffffffffff1681565b600080fd5b600073ffffffffffffffffffffffffffffffffffffffff82169050919050565b60006100bf82610094565b9050919050565b6100cf816100b4565b81146100da57600080fd5b50565b6000813590506100ec816100c6565b92915050565b6000602082840312156101085761010761008f565b5b6000610116848285016100dd565b91505092915050565b60006fffffffffffffffffffffffffffffffff82169050919050565b6101448161011f565b82525050565b600060208201905061015f600083018461013b565b9291505056fea2646970667358221220f2169c87bc5b1fa1055ad67c56ab22c7b8577b64b8ab4aeb65af9a91b54ded9864736f6c634300081a0033","linkReferences":{}},"methodIdentifiers":{"tokenToWethPrices(address)":"0ed45c8e"},"id":5}