{"abi":[{"type":"constructor","inputs":[{"name":"pools","type":"address[]","internalType":"address[]"},{"name":"dexes","type":"address[]","internalType":"address[]"},{"name":"dexIsUniV3","type":"bool[]","internalType":"bool[]"},{"name":"weth","type":"address","internalType":"address"},{"name":"wethInPoolThreshold","type":"uint256","internalType":"uint256"}],"stateMutability":"nonpayable"},{"type":"function","name":"tokenToWethPrices","inputs":[{"name":"","type":"address","internalType":"address"}],"outputs":[{"name":"","type":"uint128","internalType":"uint128"}],"stateMutability":"view"}],"bytecode":{"object":"0x608060405234801561000f575f80fd5b506040516123a23803806123a283398181016040528101906100319190611983565b5f855167ffffffffffffffff81111561004d5761004c6116c5565b5b60405190808252806020026020018201604052801561007b5781602001602082028036833780820191505090505b5090505f5b865181101561036d576100b287828151811061009f5761009e611a4e565b5b602002602001015161039b60201b60201c565b156100dc575f8282815181106100cb576100ca611a4e565b5b602002602001018181525050610362565b6101058782815181106100f2576100f1611a4e565b5b602002602001015161044760201b60201c565b610340575f87828151811061011d5761011c611a4e565b5b602002602001015173ffffffffffffffffffffffffffffffffffffffff16630dfe16816040518163ffffffff1660e01b8152600401602060405180830381865afa15801561016d573d5f803e3d5ffd5b505050506040513d601f19601f820116820180604052508101906101919190611a7b565b90505f8883815181106101a7576101a6611a4e565b5b602002602001015173ffffffffffffffffffffffffffffffffffffffff1663d21220a76040518163ffffffff1660e01b8152600401602060405180830381865afa1580156101f7573d5f803e3d5ffd5b505050506040513d601f19601f8201168201806040525081019061021b9190611a7b565b905061022c8261044760201b60201c565b15801561024557506102438161044760201b60201c565b155b15610318575f806102778b868151811061026257610261611a4e565b5b6020026020010151858561047860201b60201c565b915091505f610290858a858e8e8d61052560201b60201c565b90505f6102a7858b858f8f8e61052560201b60201c565b90505f82141580156102b957505f8114155b156102ee5780826102ca9190611ad3565b8888815181106102dd576102dc611a4e565b5b60200260200101818152505061030f565b5f88888151811061030257610301611a4e565b5b6020026020010181815250505b50505050610339565b5f84848151811061032c5761032b611a4e565b5b6020026020010181815250505b5050610361565b5f82828151811061035457610353611a4e565b5b6020026020010181815250505b5b806001019050610080565b505f816040516020016103809190611bbd565b60405160208183030381529060405290506020810180590381f35b5f6103ab826106b460201b60201c565b61043e575f8273ffffffffffffffffffffffffffffffffffffffff16631a6865026040518163ffffffff1660e01b8152600401602060405180830381865afa1580156103f9573d5f803e3d5ffd5b505050506040513d601f19601f8201168201806040525081019061041d9190611c22565b6fffffffffffffffffffffffffffffffff160361043d5760019050610442565b5b5f90505b919050565b5f808273ffffffffffffffffffffffffffffffffffffffff163b0361046f5760019050610473565b5f90505b919050565b5f805f8061048d8787876106ee60201b60201c565b9150915061051782828773ffffffffffffffffffffffffffffffffffffffff168973ffffffffffffffffffffffffffffffffffffffff16106104cf57876104d1565b885b8873ffffffffffffffffffffffffffffffffffffffff168a73ffffffffffffffffffffffffffffffffffffffff161061050a578961050c565b885b61088360201b60201c565b935093505050935093915050565b5f8573ffffffffffffffffffffffffffffffffffffffff168773ffffffffffffffffffffffffffffffffffffffff1603610561578490506106aa565b5f805f8973ffffffffffffffffffffffffffffffffffffffff1673ffffffffffffffffffffffffffffffffffffffff1681526020019081526020015f205f9054906101000a90046fffffffffffffffffffffffffffffffff1690506001816fffffffffffffffffffffffffffffffff16036105df575f9150506106aa565b5f816fffffffffffffffffffffffffffffffff161461061057610608818761098460201b60201c565b9150506106aa565b5f5b85518110156106a4575f6106638a8a89858151811061063457610633611a4e565b5b602002602001015189868151811061064f5761064e611a4e565b5b602002602001015189610ad060201b60201c565b90505f816fffffffffffffffffffffffffffffffff16146106985761068e818961098460201b60201c565b93505050506106aa565b50806001019050610612565b505f9150505b9695505050505050565b5f807fddca3f43000000000000000000000000000000000000000000000000000000005f525f8060045f80875af190508015915050919050565b5f808273ffffffffffffffffffffffffffffffffffffffff168473ffffffffffffffffffffffffffffffffffffffff161061072a57828461072d565b83835b80945081955050505f80610746876106b460201b60201c565b156107ec575f808873ffffffffffffffffffffffffffffffffffffffff16630902f1ac6040518163ffffffff1660e01b8152600401606060405180830381865afa158015610796573d5f803e3d5ffd5b505050506040513d601f19601f820116820180604052508101906107ba9190611cc9565b5091509150816dffffffffffffffffffffffffffff169350806dffffffffffffffffffffffffffff1692505050610873565b5f806107fe888a610e5860201b60201c565b915091505f80610814898c610e5860201b60201c565b915091508280156108225750805b1561086e578873ffffffffffffffffffffffffffffffffffffffff168a73ffffffffffffffffffffffffffffffffffffffff1610156108665783955081945061086d565b8394508195505b5b505050505b8181935093505050935093915050565b5f805f8061089686610fa460201b60201c565b915091505f806108ab87610fa460201b60201c565b915091508280156108b95750805b156109775760128460ff1611156108f3576012846108d79190611d25565b600a6108e39190611e88565b8a6108ee9190611eff565b610918565b8360126109009190611d25565b600a61090c9190611e88565b8a6109179190611f2f565b5b955060128260ff16111561094f576012826109339190611d25565b600a61093f9190611e88565b8961094a9190611eff565b610974565b81601261095c9190611d25565b600a6109689190611e88565b896109739190611f2f565b5b94505b5050505094509492505050565b5f808214806109a457505f836fffffffffffffffffffffffffffffffff16145b156109b1575f9050610aca565b5f60406fffffffffffffffffffffffffffffffff8416856fffffffffffffffffffffffffffffffff1602901c90505f608084901c856fffffffffffffffffffffffffffffffff1602905077ffffffffffffffffffffffffffffffffffffffffffffffff811115610a56576040517f08c379a0000000000000000000000000000000000000000000000000000000008152600401610a4d90611fca565b60405180910390fd5b604081901b9050817fffffffffffffffffffffffffffffffffffffffffffffffffffffffffffffffff03811115610ac2576040517f08c379a0000000000000000000000000000000000000000000000000000000008152600401610ab990612032565b60405180910390fd5b818101925050505b92915050565b5f8215610c9f575f60405180606001604052806101f461ffff168152602001610bb861ffff16815260200161271061ffff1681525090505f5b6003811015610c98575f8673ffffffffffffffffffffffffffffffffffffffff16631698ee828973ffffffffffffffffffffffffffffffffffffffff168b73ffffffffffffffffffffffffffffffffffffffff1610610b685789610b6a565b8a5b8a73ffffffffffffffffffffffffffffffffffffffff168c73ffffffffffffffffffffffffffffffffffffffff1610610ba3578b610ba5565b8a5b868660038110610bb857610bb7611a4e565b5b60200201516040518463ffffffff1660e01b8152600401610bdb939291906120b3565b602060405180830381865afa158015610bf6573d5f803e3d5ffd5b505050506040513d601f19601f82011682018060405250810190610c1a9190611a7b565b90505f73ffffffffffffffffffffffffffffffffffffffff168173ffffffffffffffffffffffffffffffffffffffff1614610c8c575f610c63878b8b858a61110860201b60201c565b90505f816fffffffffffffffffffffffffffffffff1614610c8a5780945050505050610e4f565b505b50806001019050610b09565b5050610dd8565b5f8573ffffffffffffffffffffffffffffffffffffffff168773ffffffffffffffffffffffffffffffffffffffff161090505f8573ffffffffffffffffffffffffffffffffffffffff1663e6a4390583610cf95788610cfb565b895b84610d06578a610d08565b895b6040518363ffffffff1660e01b8152600401610d259291906120e8565b602060405180830381865afa158015610d40573d5f803e3d5ffd5b505050506040513d601f19601f82011682018060405250810190610d649190611a7b565b90505f73ffffffffffffffffffffffffffffffffffffffff168173ffffffffffffffffffffffffffffffffffffffff1614610dd5575f610dad868a8a858961110860201b60201c565b90505f816fffffffffffffffffffffffffffffffff1614610dd357809350505050610e4f565b505b50505b60015f808873ffffffffffffffffffffffffffffffffffffffff1673ffffffffffffffffffffffffffffffffffffffff1681526020019081526020015f205f6101000a8154816fffffffffffffffffffffffffffffffff02191690836fffffffffffffffffffffffffffffffff1602179055505f90505b95945050505050565b5f805f808573ffffffffffffffffffffffffffffffffffffffff1685604051602401610e84919061210f565b6040516020818303038152906040527f70a08231000000000000000000000000000000000000000000000000000000007bffffffffffffffffffffffffffffffffffffffffffffffffffffffff19166020820180517bffffffffffffffffffffffffffffffffffffffffffffffffffffffff8381831617835250505050604051610f0e919061217a565b5f604051808303815f865af19150503d805f8114610f47576040519150601f19603f3d011682016040523d82523d5f602084013e610f4c565b606091505b50915091508115610f94575f6020825103610f865781806020019051810190610f759190612190565b905080600194509450505050610f9d565b5f8094509450505050610f9d565b5f809350935050505b9250929050565b5f805f808473ffffffffffffffffffffffffffffffffffffffff16614e206040516024016040516020818303038152906040527f313ce567000000000000000000000000000000000000000000000000000000007bffffffffffffffffffffffffffffffffffffffffffffffffffffffff19166020820180517bffffffffffffffffffffffffffffffffffffffffffffffffffffffff8381831617835250505050604051611052919061217a565b5f604051808303815f8787f1925050503d805f811461108c576040519150601f19603f3d011682016040523d82523d5f602084013e611091565b606091505b509150915081156110fa575f60208251036110ec57818060200190518101906110ba9190612190565b90505f8114806110ca575060ff81115b156110dd575f8094509450505050611103565b80600194509450505050611103565b5f8094509450505050611103565b5f809350935050505b915091565b5f808473ffffffffffffffffffffffffffffffffffffffff168673ffffffffffffffffffffffffffffffffffffffff16109050866111ba575f8061115386898961047860201b60201c565b9150915082156111755784811015611170575f93505050506112be565b611189565b84821015611188575f93505050506112be565b5b6111b1836111975782611199565b815b846111a457826111a6565b835b6112c760201b60201c565b9350505061124a565b5f8473ffffffffffffffffffffffffffffffffffffffff16633850c7bd6040518163ffffffff1660e01b815260040160e060405180830381865afa158015611204573d5f803e3d5ffd5b505050506040513d601f19601f82011682018060405250810190611228919061226f565b5050505050509050604061124482848a8a6114a960201b60201c565b901c9250505b815f808873ffffffffffffffffffffffffffffffffffffffff1673ffffffffffffffffffffffffffffffffffffffff1681526020019081526020015f205f6101000a8154816fffffffffffffffffffffffffffffffff02191690836fffffffffffffffffffffffffffffffff160217905550505b95945050505050565b5f8082036112d7575f90506114a3565b5f77ffffffffffffffffffffffffffffffffffffffffffffffff84116113135782604085901b8161130b5761130a611ed2565b5b04905061147d565b5f60c090505f60c086901c9050640100000000811061133a57602081901c90506020820191505b62010000811061135257601081901c90506010820191505b610100811061136957600881901c90506008820191505b6010811061137f57600481901c90506004820191505b6004811061139557600281901c90506002820191505b600281106113a4576001820191505b600160bf830360018703901c018260ff0387901b816113c6576113c5611ed2565b5b0492506fffffffffffffffffffffffffffffffff8311156113ec575f93505050506114a3565b5f608086901c840290505f6fffffffffffffffffffffffffffffffff8716850290505f60c089901c90505f60408a901b90508281101561142d576001820391505b8281039050608084901b925082811015611448576001820391505b8281039050608084901c82146114615761146061230c565b5b88818161147157611470611ed2565b5b04870196505050505050505b6fffffffffffffffffffffffffffffffff81111561149e575f9150506114a3565b809150505b92915050565b5f808573ffffffffffffffffffffffffffffffffffffffff16036114cf575f9050611698565b5f806114e085610fa460201b60201c565b915091505f806114f586610fa460201b60201c565b915091508280156115035750805b611513575f945050505050611698565b5f82850390505f80825f0b1261154a578160ff16600a0a60028c73ffffffffffffffffffffffffffffffffffffffff160a0261157d565b815f0360ff16600a0a60028c73ffffffffffffffffffffffffffffffffffffffff160a8161157b5761157a611ed2565b5b045b90505f8a6115dc576c010000000000000000000000006080816115a3576115a2611ed2565b5b0482901b7fffffffffffffffffffffffffffffffffffffffffffffffffffffffffffffffff816115d6576115d5611ed2565b5b046115ff565b6c010000000000000000000000006080816115fa576115f9611ed2565b5b0482901b5b90508a61160c578061162b565b6c01000000000000000000000000818161162957611628611ed2565b5b045b97507fffffffffffffffffffffffffffffffffffffffffffffffffffffffffffffffff881115611690576040517f08c379a000000000000000000000000000000000000000000000000000000000815260040161168790612383565b60405180910390fd5b505050505050505b949350505050565b5f604051905090565b5f80fd5b5f80fd5b5f80fd5b5f601f19601f8301169050919050565b7f4e487b71000000000000000000000000000000000000000000000000000000005f52604160045260245ffd5b6116fb826116b5565b810181811067ffffffffffffffff8211171561171a576117196116c5565b5b80604052505050565b5f61172c6116a0565b905061173882826116f2565b919050565b5f67ffffffffffffffff821115611757576117566116c5565b5b602082029050602081019050919050565b5f80fd5b5f73ffffffffffffffffffffffffffffffffffffffff82169050919050565b5f6117958261176c565b9050919050565b6117a58161178b565b81146117af575f80fd5b50565b5f815190506117c08161179c565b92915050565b5f6117d86117d38461173d565b611723565b905080838252602082019050602084028301858111156117fb576117fa611768565b5b835b81811015611824578061181088826117b2565b8452602084019350506020810190506117fd565b5050509392505050565b5f82601f830112611842576118416116b1565b5b81516118528482602086016117c6565b91505092915050565b5f67ffffffffffffffff821115611875576118746116c5565b5b602082029050602081019050919050565b5f8115159050919050565b61189a81611886565b81146118a4575f80fd5b50565b5f815190506118b581611891565b92915050565b5f6118cd6118c88461185b565b611723565b905080838252602082019050602084028301858111156118f0576118ef611768565b5b835b81811015611919578061190588826118a7565b8452602084019350506020810190506118f2565b5050509392505050565b5f82601f830112611937576119366116b1565b5b81516119478482602086016118bb565b91505092915050565b5f819050919050565b61196281611950565b811461196c575f80fd5b50565b5f8151905061197d81611959565b92915050565b5f805f805f60a0868803121561199c5761199b6116a9565b5b5f86015167ffffffffffffffff8111156119b9576119b86116ad565b5b6119c58882890161182e565b955050602086015167ffffffffffffffff8111156119e6576119e56116ad565b5b6119f28882890161182e565b945050604086015167ffffffffffffffff811115611a1357611a126116ad565b5b611a1f88828901611923565b9350506060611a30888289016117b2565b9250506080611a418882890161196f565b9150509295509295909350565b7f4e487b71000000000000000000000000000000000000000000000000000000005f52603260045260245ffd5b5f60208284031215611a9057611a8f6116a9565b5b5f611a9d848285016117b2565b91505092915050565b7f4e487b71000000000000000000000000000000000000000000000000000000005f52601160045260245ffd5b5f611add82611950565b9150611ae883611950565b9250828201905080821115611b0057611aff611aa6565b5b92915050565b5f81519050919050565b5f82825260208201905092915050565b5f819050602082019050919050565b611b3881611950565b82525050565b5f611b498383611b2f565b60208301905092915050565b5f602082019050919050565b5f611b6b82611b06565b611b758185611b10565b9350611b8083611b20565b805f5b83811015611bb0578151611b978882611b3e565b9750611ba283611b55565b925050600181019050611b83565b5085935050505092915050565b5f6020820190508181035f830152611bd58184611b61565b905092915050565b5f6fffffffffffffffffffffffffffffffff82169050919050565b611c0181611bdd565b8114611c0b575f80fd5b50565b5f81519050611c1c81611bf8565b92915050565b5f60208284031215611c3757611c366116a9565b5b5f611c4484828501611c0e565b91505092915050565b5f6dffffffffffffffffffffffffffff82169050919050565b611c6f81611c4d565b8114611c79575f80fd5b50565b5f81519050611c8a81611c66565b92915050565b5f63ffffffff82169050919050565b611ca881611c90565b8114611cb2575f80fd5b50565b5f81519050611cc381611c9f565b92915050565b5f805f60608486031215611ce057611cdf6116a9565b5b5f611ced86828701611c7c565b9350506020611cfe86828701611c7c565b9250506040611d0f86828701611cb5565b9150509250925092565b5f60ff82169050919050565b5f611d2f82611d19565b9150611d3a83611d19565b9250828203905060ff811115611d5357611d52611aa6565b5b92915050565b5f8160011c9050919050565b5f808291508390505b6001851115611dae57808604811115611d8a57611d89611aa6565b5b6001851615611d995780820291505b8081029050611da785611d59565b9450611d6e565b94509492505050565b5f82611dc65760019050611e81565b81611dd3575f9050611e81565b8160018114611de95760028114611df357611e22565b6001915050611e81565b60ff841115611e0557611e04611aa6565b5b8360020a915084821115611e1c57611e1b611aa6565b5b50611e81565b5060208310610133831016604e8410600b8410161715611e575782820a905083811115611e5257611e51611aa6565b5b611e81565b611e648484846001611d65565b92509050818404811115611e7b57611e7a611aa6565b5b81810290505b9392505050565b5f611e9282611950565b9150611e9d83611d19565b9250611eca7fffffffffffffffffffffffffffffffffffffffffffffffffffffffffffffffff8484611db7565b905092915050565b7f4e487b71000000000000000000000000000000000000000000000000000000005f52601260045260245ffd5b5f611f0982611950565b9150611f1483611950565b925082611f2457611f23611ed2565b5b828204905092915050565b5f611f3982611950565b9150611f4483611950565b9250828202611f5281611950565b91508282048414831517611f6957611f68611aa6565b5b5092915050565b5f82825260208201905092915050565b7f6f766572666c6f772d3020696e206d756c3634750000000000000000000000005f82015250565b5f611fb4601483611f70565b9150611fbf82611f80565b602082019050919050565b5f6020820190508181035f830152611fe181611fa8565b9050919050565b7f6f766572666c6f772d3120696e206d756c3634750000000000000000000000005f82015250565b5f61201c601483611f70565b915061202782611fe8565b602082019050919050565b5f6020820190508181035f83015261204981612010565b9050919050565b6120598161178b565b82525050565b5f61ffff82169050919050565b5f62ffffff82169050919050565b5f819050919050565b5f61209d6120986120938461205f565b61207a565b61206c565b9050919050565b6120ad81612083565b82525050565b5f6060820190506120c65f830186612050565b6120d36020830185612050565b6120e060408301846120a4565b949350505050565b5f6040820190506120fb5f830185612050565b6121086020830184612050565b9392505050565b5f6020820190506121225f830184612050565b92915050565b5f81519050919050565b5f81905092915050565b8281835e5f83830152505050565b5f61215482612128565b61215e8185612132565b935061216e81856020860161213c565b80840191505092915050565b5f612185828461214a565b915081905092915050565b5f602082840312156121a5576121a46116a9565b5b5f6121b28482850161196f565b91505092915050565b6121c48161176c565b81146121ce575f80fd5b50565b5f815190506121df816121bb565b92915050565b5f8160020b9050919050565b6121fa816121e5565b8114612204575f80fd5b50565b5f81519050612215816121f1565b92915050565b6122248161205f565b811461222e575f80fd5b50565b5f8151905061223f8161221b565b92915050565b61224e81611d19565b8114612258575f80fd5b50565b5f8151905061226981612245565b92915050565b5f805f805f805f60e0888a03121561228a576122896116a9565b5b5f6122978a828b016121d1565b97505060206122a88a828b01612207565b96505060406122b98a828b01612231565b95505060606122ca8a828b01612231565b94505060806122db8a828b01612231565b93505060a06122ec8a828b0161225b565b92505060c06122fd8a828b016118a7565b91505092959891949750929550565b7f4e487b71000000000000000000000000000000000000000000000000000000005f52600160045260245ffd5b7f4f766572666c6f770000000000000000000000000000000000000000000000005f82015250565b5f61236d600883611f70565b915061237882612339565b602082019050919050565b5f6020820190508181035f83015261239a81612361565b905091905056fe","linkReferences":{}},"deployedBytecode":{"object":"0x608060405234801561000f575f80fd5b5060043610610029575f3560e01c80630ed45c8e1461002d575b5f80fd5b610047600480360381019061004291906100e6565b61005d565b604051610054919061013b565b60405180910390f35b5f602052805f5260405f205f915054906101000a90046fffffffffffffffffffffffffffffffff1681565b5f80fd5b5f73ffffffffffffffffffffffffffffffffffffffff82169050919050565b5f6100b58261008c565b9050919050565b6100c5816100ab565b81146100cf575f80fd5b50565b5f813590506100e0816100bc565b92915050565b5f602082840312156100fb576100fa610088565b5b5f610108848285016100d2565b91505092915050565b5f6fffffffffffffffffffffffffffffffff82169050919050565b61013581610111565b82525050565b5f60208201905061014e5f83018461012c565b9291505056fea2646970667358221220099dc160bd87a4f08a4f9d0511c3651ca94cdad799b22393ce4f35e4f24b91aa64736f6c634300081a0033","linkReferences":{}},"methodIdentifiers":{"tokenToWethPrices(address)":"0ed45c8e"},"id":28}