{"abi":[{"type":"constructor","inputs":[{"name":"_uniswapV2Factory","type":"address","internalType":"address"},{"name":"_uniswapV3Factory","type":"address","internalType":"address"},{"name":"_weth","type":"address","internalType":"address"},{"name":"pools","type":"tuple[]","internalType":"struct WethValueInPools.PoolInfo[]","components":[{"name":"poolType","type":"uint8","internalType":"enum WethValueInPools.PoolType"},{"name":"poolAddress","type":"address","internalType":"address"}]}],"stateMutability":"nonpayable"},{"type":"function","name":"getWethValueInPools","inputs":[{"name":"pools","type":"tuple[]","internalType":"struct WethValueInPools.PoolInfo[]","components":[{"name":"poolType","type":"uint8","internalType":"enum WethValueInPools.PoolType"},{"name":"poolAddress","type":"address","internalType":"address"}]}],"outputs":[{"name":"","type":"tuple[]","internalType":"struct WethValueInPools.PoolInfoReturn[]","components":[{"name":"poolType","type":"uint8","internalType":"enum WethValueInPools.PoolType"},{"name":"poolAddress","type":"address","internalType":"address"},{"name":"wethValue","type":"uint256","internalType":"uint256"}]}],"stateMutability":"nonpayable"}],"bytecode":{"object":"0x608060405234801561000f575f5ffd5b5060405161268138038061268183398181016040528101906100319190611c2b565b838383825f5f6101000a81548173ffffffffffffffffffffffffffffffffffffffff021916908373ffffffffffffffffffffffffffffffffffffffff1602179055508160015f6101000a81548173ffffffffffffffffffffffffffffffffffffffff021916908373ffffffffffffffffffffffffffffffffffffffff1602179055508060025f6101000a81548173ffffffffffffffffffffffffffffffffffffffff021916908373ffffffffffffffffffffffffffffffffffffffff1602179055505050505f6101068261013560201b60201c565b90505f8160405160200161011a9190611e2d565b60405160208183030381529060405290506020810180590381f35b60605f825167ffffffffffffffff81111561015357610152611a7b565b5b60405190808252806020026020018201604052801561018c57816020015b6101796119b6565b8152602001906001900390816101715790505b5090505f5f90505b83518110156103de575f8482815181106101b1576101b0611e4d565b5b602002602001015190505f60028111156101ce576101cd611cd4565b5b815f015160028111156101e4576101e3611cd4565b5b0361026d575f6101fd82602001516103e860201b60201c565b90506040518060600160405280835f015160028111156102205761021f611cd4565b5b8152602001836020015173ffffffffffffffffffffffffffffffffffffffff1681526020018281525084848151811061025c5761025b611e4d565b5b6020026020010181905250506103d0565b6001600281111561028157610280611cd4565b5b815f0151600281111561029757610296611cd4565b5b03610320575f6102b0826020015161067760201b60201c565b90506040518060600160405280835f015160028111156102d3576102d2611cd4565b5b8152602001836020015173ffffffffffffffffffffffffffffffffffffffff1681526020018281525084848151811061030f5761030e611e4d565b5b6020026020010181905250506103cf565b60028081111561033357610332611cd4565b5b815f0151600281111561034957610348611cd4565b5b036103ce575f61036282602001516109a060201b60201c565b90506040518060600160405280835f0151600281111561038557610384611cd4565b5b8152602001836020015173ffffffffffffffffffffffffffffffffffffffff168152602001828152508484815181106103c1576103c0611e4d565b5b6020026020010181905250505b5b5b508080600101915050610194565b5080915050919050565b5f60608273ffffffffffffffffffffffffffffffffffffffff1663cc77828d6040518163ffffffff1660e01b81526004015f604051808303815f875af192505050801561045757506040513d5f823e3d601f19601f820116820180604052508101906104549190611f3a565b60015b610464575f915050610672565b809150505f5f90505b81518110156105a45760025f9054906101000a900473ffffffffffffffffffffffffffffffffffffffff1673ffffffffffffffffffffffffffffffffffffffff168282815181106104c1576104c0611e4d565b5b602002602001015173ffffffffffffffffffffffffffffffffffffffff1603610597578373ffffffffffffffffffffffffffffffffffffffff1663f8b2cb4f83838151811061051357610512611e4d565b5b60200260200101516040518263ffffffff1660e01b81526004016105379190611f90565b6020604051808303815f875af192505050801561057257506040513d601f19601f8201168201806040525081019061056f9190611fd3565b60015b610580575f92505050610672565b82518161058d919061202b565b9350505050610672565b808060010191505061046d565b505f815f815181106105b9576105b8611e4d565b5b602002602001015190505f8473ffffffffffffffffffffffffffffffffffffffff1663f8b2cb4f836040518263ffffffff1660e01b81526004016105fd9190611f90565b6020604051808303815f875af192505050801561063857506040513d601f19601f820116820180604052508101906106359190611fd3565b60015b610647575f9350505050610672565b809150505f61065c8383610d1b60201b60201c565b905083518161066b919061202b565b9450505050505b919050565b5f5f8273ffffffffffffffffffffffffffffffffffffffff16630dfe16816040518163ffffffff1660e01b8152600401602060405180830381865afa9250505080156106e157506040513d601f19601f820116820180604052508101906106de919061206c565b60015b6106ee575f91505061099b565b809150505f8373ffffffffffffffffffffffffffffffffffffffff1663d21220a76040518163ffffffff1660e01b8152600401602060405180830381865afa92505050801561075b57506040513d601f19601f82011682018060405250810190610758919061206c565b60015b610769575f9250505061099b565b809150508373ffffffffffffffffffffffffffffffffffffffff16630902f1ac6040518163ffffffff1660e01b8152600401606060405180830381865afa9250505080156107d557506040513d601f19601f820116820180604052508101906107d29190612113565b60015b6107e3575f9250505061099b565b60025f9054906101000a900473ffffffffffffffffffffffffffffffffffffffff1673ffffffffffffffffffffffffffffffffffffffff168573ffffffffffffffffffffffffffffffffffffffff1603610860576002836108449190612163565b6dffffffffffffffffffffffffffff169550505050505061099b565b60025f9054906101000a900473ffffffffffffffffffffffffffffffffffffffff1673ffffffffffffffffffffffffffffffffffffffff168473ffffffffffffffffffffffffffffffffffffffff16036108dd576002826108c19190612163565b6dffffffffffffffffffffffffffff169550505050505061099b565b5f6108ed86610d7d60201b60201c565b5090505f601260ff168260ff1611156109395760128261090d91906121ab565b600a610919919061230e565b856dffffffffffffffffffffffffffff166109349190612385565b61096e565b81601261094691906121ab565b600a610952919061230e565b856dffffffffffffffffffffffffffff1661096d919061202b565b5b90505f6109818883610d1b60201b60201c565b9050600281610990919061202b565b985050505050505050505b919050565b5f5f8273ffffffffffffffffffffffffffffffffffffffff16630dfe16816040518163ffffffff1660e01b8152600401602060405180830381865afa925050508015610a0a57506040513d601f19601f82011682018060405250810190610a07919061206c565b60015b610a17575f915050610d16565b809150505f8373ffffffffffffffffffffffffffffffffffffffff1663d21220a76040518163ffffffff1660e01b8152600401602060405180830381865afa925050508015610a8457506040513d601f19601f82011682018060405250810190610a81919061206c565b60015b610a92575f92505050610d16565b8091505060025f9054906101000a900473ffffffffffffffffffffffffffffffffffffffff1673ffffffffffffffffffffffffffffffffffffffff168273ffffffffffffffffffffffffffffffffffffffff1603610b82578173ffffffffffffffffffffffffffffffffffffffff166370a08231856040518263ffffffff1660e01b8152600401610b239190611f90565b602060405180830381865afa925050508015610b5d57506040513d601f19601f82011682018060405250810190610b5a9190611fd3565b60015b610b6b575f92505050610d16565b600281610b78919061202b565b9350505050610d16565b60025f9054906101000a900473ffffffffffffffffffffffffffffffffffffffff1673ffffffffffffffffffffffffffffffffffffffff168173ffffffffffffffffffffffffffffffffffffffff1603610c6e578073ffffffffffffffffffffffffffffffffffffffff166370a08231856040518263ffffffff1660e01b8152600401610c0f9190611f90565b602060405180830381865afa925050508015610c4957506040513d601f19601f82011682018060405250810190610c469190611fd3565b60015b610c57575f92505050610d16565b600281610c64919061202b565b9350505050610d16565b8173ffffffffffffffffffffffffffffffffffffffff166370a08231856040518263ffffffff1660e01b8152600401610ca79190611f90565b602060405180830381865afa925050508015610ce157506040513d601f19601f82011682018060405250810190610cde9190611fd3565b60015b610cef575f92505050610d16565b5f610d008483610d1b60201b60201c565b9050600281610d0f919061202b565b9450505050505b919050565b5f5f610d2c84610ee160201b60201c565b90505f816fffffffffffffffffffffffffffffffff161115610d6057610d588184610f3260201b60201c565b915050610d77565b806fffffffffffffffffffffffffffffffff169150505b92915050565b5f5f5f5f8473ffffffffffffffffffffffffffffffffffffffff16614e206040516024016040516020818303038152906040527f313ce567000000000000000000000000000000000000000000000000000000007bffffffffffffffffffffffffffffffffffffffffffffffffffffffff19166020820180517bffffffffffffffffffffffffffffffffffffffffffffffffffffffff8381831617835250505050604051610e2b9190612407565b5f604051808303815f8787f1925050503d805f8114610e65576040519150601f19603f3d011682016040523d82523d5f602084013e610e6a565b606091505b50915091508115610ed3575f6020825103610ec55781806020019051810190610e939190611fd3565b90505f811480610ea3575060ff81115b15610eb6575f5f94509450505050610edc565b80600194509450505050610edc565b5f5f94509450505050610edc565b5f5f9350935050505b915091565b5f5f610ef28361101c60201b60201c565b90505f816fffffffffffffffffffffffffffffffff161115610f175780915050610f2d565b610f268361137960201b60201c565b9050809150505b919050565b5f5f821480610f5257505f836fffffffffffffffffffffffffffffffff16145b15610f5f575f9050611016565b5f60406fffffffffffffffffffffffffffffffff8416856fffffffffffffffffffffffffffffffff1602901c90505f608084901c856fffffffffffffffffffffffffffffffff1602905077ffffffffffffffffffffffffffffffffffffffffffffffff811115610fd3575f92505050611016565b604081901b9050817fffffffffffffffffffffffffffffffffffffffffffffffffffffffffffffffff0381111561100e575f92505050611016565b818101925050505b92915050565b5f5f5f5f9054906101000a900473ffffffffffffffffffffffffffffffffffffffff1673ffffffffffffffffffffffffffffffffffffffff1663e6a439058460025f9054906101000a900473ffffffffffffffffffffffffffffffffffffffff166040518363ffffffff1660e01b815260040161109a92919061241d565b602060405180830381865afa1580156110b5573d5f5f3e3d5ffd5b505050506040513d601f19601f820116820180604052508101906110d9919061206c565b90505f73ffffffffffffffffffffffffffffffffffffffff168173ffffffffffffffffffffffffffffffffffffffff1603611117575f915050611374565b5f5f8273ffffffffffffffffffffffffffffffffffffffff16630902f1ac6040518163ffffffff1660e01b8152600401606060405180830381865afa92505050801561118157506040513d601f19601f8201168201806040525081019061117e9190612113565b60015b611190575f9350505050611374565b8294508193505050505f826dffffffffffffffffffffffffffff1614806111c657505f816dffffffffffffffffffffffffffff16145b156111d6575f9350505050611374565b5f5f6111e787610d7d60201b60201c565b91509150806111fd575f95505050505050611374565b5f60025f9054906101000a900473ffffffffffffffffffffffffffffffffffffffff1673ffffffffffffffffffffffffffffffffffffffff168873ffffffffffffffffffffffffffffffffffffffff1610611258578461125a565b835b90505f60025f9054906101000a900473ffffffffffffffffffffffffffffffffffffffff1673ffffffffffffffffffffffffffffffffffffffff168973ffffffffffffffffffffffffffffffffffffffff16106112b757846112b9565b855b9050601260ff168460ff161115611303576012846112d791906121ab565b600a6112e3919061230e565b816dffffffffffffffffffffffffffff166112fe9190612385565b611338565b83601261131091906121ab565b600a61131c919061230e565b816dffffffffffffffffffffffffffff16611337919061202b565b5b905061136a826dffffffffffffffffffffffffffff16826dffffffffffffffffffffffffffff1661165260201b60201c565b9750505050505050505b919050565b5f5f60405180606001604052806101f461ffff168152602001610bb861ffff16815260200161271061ffff1681525090505f5f5f90505b60038110156114d9575f60015f9054906101000a900473ffffffffffffffffffffffffffffffffffffffff1673ffffffffffffffffffffffffffffffffffffffff16631698ee828760025f9054906101000a900473ffffffffffffffffffffffffffffffffffffffff1687866003811061142d5761142c611e4d565b5b60200201516040518463ffffffff1660e01b815260040161145093929190612498565b602060405180830381865afa15801561146b573d5f5f3e3d5ffd5b505050506040513d601f19601f8201168201806040525081019061148f919061206c565b90505f73ffffffffffffffffffffffffffffffffffffffff168373ffffffffffffffffffffffffffffffffffffffff16146114cd57809250506114d9565b508060010190506113b0565b505f73ffffffffffffffffffffffffffffffffffffffff168173ffffffffffffffffffffffffffffffffffffffff1603611517575f9250505061164d565b5f8173ffffffffffffffffffffffffffffffffffffffff16633850c7bd6040518163ffffffff1660e01b815260040160e060405180830381865afa92505050801561158057506040513d601f19601f8201168201806040525081019061157d91906125b6565b60015b61158f575f935050505061164d565b869750505050505050505f60025f9054906101000a900473ffffffffffffffffffffffffffffffffffffffff1673ffffffffffffffffffffffffffffffffffffffff168673ffffffffffffffffffffffffffffffffffffffff161090505f5f6115fd88610d7d60201b60201c565b9150915080611614575f965050505050505061164d565b6040611642858586611627576012611629565b855b876116345786611637565b60125b61183460201b60201c565b901c96505050505050505b919050565b5f5f8203611662575f905061182e565b5f77ffffffffffffffffffffffffffffffffffffffffffffffff841161169e5782604085901b8161169657611695612358565b5b049050611808565b5f60c090505f60c086901c905064010000000081106116c557602081901c90506020820191505b6201000081106116dd57601081901c90506010820191505b61010081106116f457600881901c90506008820191505b6010811061170a57600481901c90506004820191505b6004811061172057600281901c90506002820191505b6002811061172f576001820191505b600160bf830360018703901c018260ff0387901b8161175157611750612358565b5b0492506fffffffffffffffffffffffffffffffff831115611777575f935050505061182e565b5f608086901c840290505f6fffffffffffffffffffffffffffffffff8716850290505f60c089901c90505f60408a901b9050828110156117b8576001820391505b8281039050608084901b9250828110156117d3576001820391505b8281039050608084901c82146117ec576117eb612653565b5b8881816117fc576117fb612358565b5b04870196505050505050505b6fffffffffffffffffffffffffffffffff811115611829575f91505061182e565b809150505b92915050565b5f5f82840390505f5f825f0b1261186c578160ff16600a0a60028873ffffffffffffffffffffffffffffffffffffffff160a0261189f565b815f0360ff16600a0a60028873ffffffffffffffffffffffffffffffffffffffff160a8161189d5761189c612358565b5b045b9050806c0100000000000000000000000011156118c0575f925050506119ae565b5f86611918576c0100000000000000000000000082816118e3576118e2612358565b5b046fffffffffffffffffffffffffffffffff6c01000000000000000000000000028161191257611911612358565b5b04611937565b6c01000000000000000000000000828161193557611934612358565b5b045b9050866119445780611975565b6c010000000000000000000000006fffffffffffffffffffffffffffffffff82028161197357611972612358565b5b045b93507fffffffffffffffffffffffffffffffffffffffffffffffffffffffffffffffff8411156119aa575f93505050506119ae565b5050505b949350505050565b60405180606001604052805f60028111156119d4576119d3611cd4565b5b81526020015f73ffffffffffffffffffffffffffffffffffffffff1681526020015f81525090565b5f604051905090565b5f5ffd5b5f5ffd5b5f73ffffffffffffffffffffffffffffffffffffffff82169050919050565b5f611a3682611a0d565b9050919050565b611a4681611a2c565b8114611a50575f5ffd5b50565b5f81519050611a6181611a3d565b92915050565b5f5ffd5b5f601f19601f8301169050919050565b7f4e487b71000000000000000000000000000000000000000000000000000000005f52604160045260245ffd5b611ab182611a6b565b810181811067ffffffffffffffff82111715611ad057611acf611a7b565b5b80604052505050565b5f611ae26119fc565b9050611aee8282611aa8565b919050565b5f67ffffffffffffffff821115611b0d57611b0c611a7b565b5b602082029050602081019050919050565b5f5ffd5b5f5ffd5b60038110611b32575f5ffd5b50565b5f81519050611b4381611b26565b92915050565b5f60408284031215611b5e57611b5d611b22565b5b611b686040611ad9565b90505f611b7784828501611b35565b5f830152506020611b8a84828501611a53565b60208301525092915050565b5f611ba8611ba384611af3565b611ad9565b90508083825260208201905060408402830185811115611bcb57611bca611b1e565b5b835b81811015611bf45780611be08882611b49565b845260208401935050604081019050611bcd565b5050509392505050565b5f82601f830112611c1257611c11611a67565b5b8151611c22848260208601611b96565b91505092915050565b5f5f5f5f60808587031215611c4357611c42611a05565b5b5f611c5087828801611a53565b9450506020611c6187828801611a53565b9350506040611c7287828801611a53565b925050606085015167ffffffffffffffff811115611c9357611c92611a09565b5b611c9f87828801611bfe565b91505092959194509250565b5f81519050919050565b5f82825260208201905092915050565b5f819050602082019050919050565b7f4e487b71000000000000000000000000000000000000000000000000000000005f52602160045260245ffd5b60038110611d1257611d11611cd4565b5b50565b5f819050611d2282611d01565b919050565b5f611d3182611d15565b9050919050565b611d4181611d27565b82525050565b611d5081611a2c565b82525050565b5f819050919050565b611d6881611d56565b82525050565b606082015f820151611d825f850182611d38565b506020820151611d956020850182611d47565b506040820151611da86040850182611d5f565b50505050565b5f611db98383611d6e565b60608301905092915050565b5f602082019050919050565b5f611ddb82611cab565b611de58185611cb5565b9350611df083611cc5565b805f5b83811015611e20578151611e078882611dae565b9750611e1283611dc5565b925050600181019050611df3565b5085935050505092915050565b5f6020820190508181035f830152611e458184611dd1565b905092915050565b7f4e487b71000000000000000000000000000000000000000000000000000000005f52603260045260245ffd5b5f67ffffffffffffffff821115611e9457611e93611a7b565b5b602082029050602081019050919050565b5f611eb7611eb284611e7a565b611ad9565b90508083825260208201905060208402830185811115611eda57611ed9611b1e565b5b835b81811015611f035780611eef8882611a53565b845260208401935050602081019050611edc565b5050509392505050565b5f82601f830112611f2157611f20611a67565b5b8151611f31848260208601611ea5565b91505092915050565b5f60208284031215611f4f57611f4e611a05565b5b5f82015167ffffffffffffffff811115611f6c57611f6b611a09565b5b611f7884828501611f0d565b91505092915050565b611f8a81611a2c565b82525050565b5f602082019050611fa35f830184611f81565b92915050565b611fb281611d56565b8114611fbc575f5ffd5b50565b5f81519050611fcd81611fa9565b92915050565b5f60208284031215611fe857611fe7611a05565b5b5f611ff584828501611fbf565b91505092915050565b7f4e487b71000000000000000000000000000000000000000000000000000000005f52601160045260245ffd5b5f61203582611d56565b915061204083611d56565b925082820261204e81611d56565b9150828204841483151761206557612064611ffe565b5b5092915050565b5f6020828403121561208157612080611a05565b5b5f61208e84828501611a53565b91505092915050565b5f6dffffffffffffffffffffffffffff82169050919050565b6120b981612097565b81146120c3575f5ffd5b50565b5f815190506120d4816120b0565b92915050565b5f63ffffffff82169050919050565b6120f2816120da565b81146120fc575f5ffd5b50565b5f8151905061210d816120e9565b92915050565b5f5f5f6060848603121561212a57612129611a05565b5b5f612137868287016120c6565b9350506020612148868287016120c6565b9250506040612159868287016120ff565b9150509250925092565b5f61216d82612097565b915061217883612097565b925082820261218681612097565b915080821461219857612197611ffe565b5b5092915050565b5f60ff82169050919050565b5f6121b58261219f565b91506121c08361219f565b9250828203905060ff8111156121d9576121d8611ffe565b5b92915050565b5f8160011c9050919050565b5f5f8291508390505b6001851115612234578086048111156122105761220f611ffe565b5b600185161561221f5780820291505b808102905061222d856121df565b94506121f4565b94509492505050565b5f8261224c5760019050612307565b81612259575f9050612307565b816001811461226f5760028114612279576122a8565b6001915050612307565b60ff84111561228b5761228a611ffe565b5b8360020a9150848211156122a2576122a1611ffe565b5b50612307565b5060208310610133831016604e8410600b84101617156122dd5782820a9050838111156122d8576122d7611ffe565b5b612307565b6122ea84848460016121eb565b9250905081840481111561230157612300611ffe565b5b81810290505b9392505050565b5f61231882611d56565b91506123238361219f565b92506123507fffffffffffffffffffffffffffffffffffffffffffffffffffffffffffffffff848461223d565b905092915050565b7f4e487b71000000000000000000000000000000000000000000000000000000005f52601260045260245ffd5b5f61238f82611d56565b915061239a83611d56565b9250826123aa576123a9612358565b5b828204905092915050565b5f81519050919050565b5f81905092915050565b8281835e5f83830152505050565b5f6123e1826123b5565b6123eb81856123bf565b93506123fb8185602086016123c9565b80840191505092915050565b5f61241282846123d7565b915081905092915050565b5f6040820190506124305f830185611f81565b61243d6020830184611f81565b9392505050565b5f61ffff82169050919050565b5f62ffffff82169050919050565b5f819050919050565b5f61248261247d61247884612444565b61245f565b612451565b9050919050565b61249281612468565b82525050565b5f6060820190506124ab5f830186611f81565b6124b86020830185611f81565b6124c56040830184612489565b949350505050565b6124d681611a0d565b81146124e0575f5ffd5b50565b5f815190506124f1816124cd565b92915050565b5f8160020b9050919050565b61250c816124f7565b8114612516575f5ffd5b50565b5f8151905061252781612503565b92915050565b61253681612444565b8114612540575f5ffd5b50565b5f815190506125518161252d565b92915050565b6125608161219f565b811461256a575f5ffd5b50565b5f8151905061257b81612557565b92915050565b5f8115159050919050565b61259581612581565b811461259f575f5ffd5b50565b5f815190506125b08161258c565b92915050565b5f5f5f5f5f5f5f60e0888a0312156125d1576125d0611a05565b5b5f6125de8a828b016124e3565b97505060206125ef8a828b01612519565b96505060406126008a828b01612543565b95505060606126118a828b01612543565b94505060806126228a828b01612543565b93505060a06126338a828b0161256d565b92505060c06126448a828b016125a2565b91505092959891949750929550565b7f4e487b71000000000000000000000000000000000000000000000000000000005f52600160045260245ffdfe","linkReferences":{}},"deployedBytecode":{"object":"0x608060405234801561000f575f5ffd5b5060043610610029575f3560e01c8063339173fd1461002d575b5f5ffd5b61004760048036038101906100429190611af9565b61005d565b6040516100549190611cc2565b60405180910390f35b60605f825167ffffffffffffffff81111561007b5761007a6118ef565b5b6040519080825280602002602001820160405280156100b457816020015b6100a1611884565b8152602001906001900390816100995790505b5090505f5f90505b83518110156102f4575f8482815181106100d9576100d8611ce2565b5b602002602001015190505f60028111156100f6576100f5611b69565b5b815f0151600281111561010c5761010b611b69565b5b0361018f575f61011f82602001516102fe565b90506040518060600160405280835f0151600281111561014257610141611b69565b5b8152602001836020015173ffffffffffffffffffffffffffffffffffffffff1681526020018281525084848151811061017e5761017d611ce2565b5b6020026020010181905250506102e6565b600160028111156101a3576101a2611b69565b5b815f015160028111156101b9576101b8611b69565b5b0361023c575f6101cc8260200151610587565b90506040518060600160405280835f015160028111156101ef576101ee611b69565b5b8152602001836020015173ffffffffffffffffffffffffffffffffffffffff1681526020018281525084848151811061022b5761022a611ce2565b5b6020026020010181905250506102e5565b60028081111561024f5761024e611b69565b5b815f0151600281111561026557610264611b69565b5b036102e4575f61027882602001516108a4565b90506040518060600160405280835f0151600281111561029b5761029a611b69565b5b8152602001836020015173ffffffffffffffffffffffffffffffffffffffff168152602001828152508484815181106102d7576102d6611ce2565b5b6020026020010181905250505b5b5b5080806001019150506100bc565b5080915050919050565b5f60608273ffffffffffffffffffffffffffffffffffffffff1663cc77828d6040518163ffffffff1660e01b81526004015f604051808303815f875af192505050801561036d57506040513d5f823e3d601f19601f8201168201806040525081019061036a9190611de3565b60015b61037a575f915050610582565b809150505f5f90505b81518110156104ba5760025f9054906101000a900473ffffffffffffffffffffffffffffffffffffffff1673ffffffffffffffffffffffffffffffffffffffff168282815181106103d7576103d6611ce2565b5b602002602001015173ffffffffffffffffffffffffffffffffffffffff16036104ad578373ffffffffffffffffffffffffffffffffffffffff1663f8b2cb4f83838151811061042957610428611ce2565b5b60200260200101516040518263ffffffff1660e01b815260040161044d9190611e39565b6020604051808303815f875af192505050801561048857506040513d601f19601f820116820180604052508101906104859190611e7c565b60015b610496575f92505050610582565b8251816104a39190611ed4565b9350505050610582565b8080600101915050610383565b505f815f815181106104cf576104ce611ce2565b5b602002602001015190505f8473ffffffffffffffffffffffffffffffffffffffff1663f8b2cb4f836040518263ffffffff1660e01b81526004016105139190611e39565b6020604051808303815f875af192505050801561054e57506040513d601f19601f8201168201806040525081019061054b9190611e7c565b60015b61055d575f9350505050610582565b809150505f61056c8383610c19565b905083518161057b9190611ed4565b9450505050505b919050565b5f5f8273ffffffffffffffffffffffffffffffffffffffff16630dfe16816040518163ffffffff1660e01b8152600401602060405180830381865afa9250505080156105f157506040513d601f19601f820116820180604052508101906105ee9190611f15565b60015b6105fe575f91505061089f565b809150505f8373ffffffffffffffffffffffffffffffffffffffff1663d21220a76040518163ffffffff1660e01b8152600401602060405180830381865afa92505050801561066b57506040513d601f19601f820116820180604052508101906106689190611f15565b60015b610679575f9250505061089f565b809150508373ffffffffffffffffffffffffffffffffffffffff16630902f1ac6040518163ffffffff1660e01b8152600401606060405180830381865afa9250505080156106e557506040513d601f19601f820116820180604052508101906106e29190611fbc565b60015b6106f3575f9250505061089f565b60025f9054906101000a900473ffffffffffffffffffffffffffffffffffffffff1673ffffffffffffffffffffffffffffffffffffffff168573ffffffffffffffffffffffffffffffffffffffff160361077057600283610754919061200c565b6dffffffffffffffffffffffffffff169550505050505061089f565b60025f9054906101000a900473ffffffffffffffffffffffffffffffffffffffff1673ffffffffffffffffffffffffffffffffffffffff168473ffffffffffffffffffffffffffffffffffffffff16036107ed576002826107d1919061200c565b6dffffffffffffffffffffffffffff169550505050505061089f565b5f6107f786610c6f565b5090505f601260ff168260ff161115610843576012826108179190612054565b600a61082391906121b7565b856dffffffffffffffffffffffffffff1661083e919061222e565b610878565b8160126108509190612054565b600a61085c91906121b7565b856dffffffffffffffffffffffffffff166108779190611ed4565b5b90505f6108858883610c19565b90506002816108949190611ed4565b985050505050505050505b919050565b5f5f8273ffffffffffffffffffffffffffffffffffffffff16630dfe16816040518163ffffffff1660e01b8152600401602060405180830381865afa92505050801561090e57506040513d601f19601f8201168201806040525081019061090b9190611f15565b60015b61091b575f915050610c14565b809150505f8373ffffffffffffffffffffffffffffffffffffffff1663d21220a76040518163ffffffff1660e01b8152600401602060405180830381865afa92505050801561098857506040513d601f19601f820116820180604052508101906109859190611f15565b60015b610996575f92505050610c14565b8091505060025f9054906101000a900473ffffffffffffffffffffffffffffffffffffffff1673ffffffffffffffffffffffffffffffffffffffff168273ffffffffffffffffffffffffffffffffffffffff1603610a86578173ffffffffffffffffffffffffffffffffffffffff166370a08231856040518263ffffffff1660e01b8152600401610a279190611e39565b602060405180830381865afa925050508015610a6157506040513d601f19601f82011682018060405250810190610a5e9190611e7c565b60015b610a6f575f92505050610c14565b600281610a7c9190611ed4565b9350505050610c14565b60025f9054906101000a900473ffffffffffffffffffffffffffffffffffffffff1673ffffffffffffffffffffffffffffffffffffffff168173ffffffffffffffffffffffffffffffffffffffff1603610b72578073ffffffffffffffffffffffffffffffffffffffff166370a08231856040518263ffffffff1660e01b8152600401610b139190611e39565b602060405180830381865afa925050508015610b4d57506040513d601f19601f82011682018060405250810190610b4a9190611e7c565b60015b610b5b575f92505050610c14565b600281610b689190611ed4565b9350505050610c14565b8173ffffffffffffffffffffffffffffffffffffffff166370a08231856040518263ffffffff1660e01b8152600401610bab9190611e39565b602060405180830381865afa925050508015610be557506040513d601f19601f82011682018060405250810190610be29190611e7c565b60015b610bf3575f92505050610c14565b5f610bfe8483610c19565b9050600281610c0d9190611ed4565b9450505050505b919050565b5f5f610c2484610dd3565b90505f816fffffffffffffffffffffffffffffffff161115610c5257610c4a8184610e18565b915050610c69565b806fffffffffffffffffffffffffffffffff169150505b92915050565b5f5f5f5f8473ffffffffffffffffffffffffffffffffffffffff16614e206040516024016040516020818303038152906040527f313ce567000000000000000000000000000000000000000000000000000000007bffffffffffffffffffffffffffffffffffffffffffffffffffffffff19166020820180517bffffffffffffffffffffffffffffffffffffffffffffffffffffffff8381831617835250505050604051610d1d91906122b0565b5f604051808303815f8787f1925050503d805f8114610d57576040519150601f19603f3d011682016040523d82523d5f602084013e610d5c565b606091505b50915091508115610dc5575f6020825103610db75781806020019051810190610d859190611e7c565b90505f811480610d95575060ff81115b15610da8575f5f94509450505050610dce565b80600194509450505050610dce565b5f5f94509450505050610dce565b5f5f9350935050505b915091565b5f5f610dde83610f02565b90505f816fffffffffffffffffffffffffffffffff161115610e035780915050610e13565b610e0c83611253565b9050809150505b919050565b5f5f821480610e3857505f836fffffffffffffffffffffffffffffffff16145b15610e45575f9050610efc565b5f60406fffffffffffffffffffffffffffffffff8416856fffffffffffffffffffffffffffffffff1602901c90505f608084901c856fffffffffffffffffffffffffffffffff1602905077ffffffffffffffffffffffffffffffffffffffffffffffff811115610eb9575f92505050610efc565b604081901b9050817fffffffffffffffffffffffffffffffffffffffffffffffffffffffffffffffff03811115610ef4575f92505050610efc565b818101925050505b92915050565b5f5f5f5f9054906101000a900473ffffffffffffffffffffffffffffffffffffffff1673ffffffffffffffffffffffffffffffffffffffff1663e6a439058460025f9054906101000a900473ffffffffffffffffffffffffffffffffffffffff166040518363ffffffff1660e01b8152600401610f809291906122c6565b602060405180830381865afa158015610f9b573d5f5f3e3d5ffd5b505050506040513d601f19601f82011682018060405250810190610fbf9190611f15565b90505f73ffffffffffffffffffffffffffffffffffffffff168173ffffffffffffffffffffffffffffffffffffffff1603610ffd575f91505061124e565b5f5f8273ffffffffffffffffffffffffffffffffffffffff16630902f1ac6040518163ffffffff1660e01b8152600401606060405180830381865afa92505050801561106757506040513d601f19601f820116820180604052508101906110649190611fbc565b60015b611076575f935050505061124e565b8294508193505050505f826dffffffffffffffffffffffffffff1614806110ac57505f816dffffffffffffffffffffffffffff16145b156110bc575f935050505061124e565b5f5f6110c787610c6f565b91509150806110dd575f9550505050505061124e565b5f60025f9054906101000a900473ffffffffffffffffffffffffffffffffffffffff1673ffffffffffffffffffffffffffffffffffffffff168873ffffffffffffffffffffffffffffffffffffffff1610611138578461113a565b835b90505f60025f9054906101000a900473ffffffffffffffffffffffffffffffffffffffff1673ffffffffffffffffffffffffffffffffffffffff168973ffffffffffffffffffffffffffffffffffffffff16106111975784611199565b855b9050601260ff168460ff1611156111e3576012846111b79190612054565b600a6111c391906121b7565b816dffffffffffffffffffffffffffff166111de919061222e565b611218565b8360126111f09190612054565b600a6111fc91906121b7565b816dffffffffffffffffffffffffffff166112179190611ed4565b5b9050611244826dffffffffffffffffffffffffffff16826dffffffffffffffffffffffffffff16611520565b9750505050505050505b919050565b5f5f60405180606001604052806101f461ffff168152602001610bb861ffff16815260200161271061ffff1681525090505f5f5f90505b60038110156113b3575f60015f9054906101000a900473ffffffffffffffffffffffffffffffffffffffff1673ffffffffffffffffffffffffffffffffffffffff16631698ee828760025f9054906101000a900473ffffffffffffffffffffffffffffffffffffffff1687866003811061130757611306611ce2565b5b60200201516040518463ffffffff1660e01b815260040161132a93929190612341565b602060405180830381865afa158015611345573d5f5f3e3d5ffd5b505050506040513d601f19601f820116820180604052508101906113699190611f15565b90505f73ffffffffffffffffffffffffffffffffffffffff168373ffffffffffffffffffffffffffffffffffffffff16146113a757809250506113b3565b5080600101905061128a565b505f73ffffffffffffffffffffffffffffffffffffffff168173ffffffffffffffffffffffffffffffffffffffff16036113f1575f9250505061151b565b5f8173ffffffffffffffffffffffffffffffffffffffff16633850c7bd6040518163ffffffff1660e01b815260040160e060405180830381865afa92505050801561145a57506040513d601f19601f82011682018060405250810190611457919061245f565b60015b611469575f935050505061151b565b869750505050505050505f60025f9054906101000a900473ffffffffffffffffffffffffffffffffffffffff1673ffffffffffffffffffffffffffffffffffffffff168673ffffffffffffffffffffffffffffffffffffffff161090505f5f6114d188610c6f565b91509150806114e8575f965050505050505061151b565b60406115108585866114fb5760126114fd565b855b87611508578661150b565b60125b611702565b901c96505050505050505b919050565b5f5f8203611530575f90506116fc565b5f77ffffffffffffffffffffffffffffffffffffffffffffffff841161156c5782604085901b8161156457611563612201565b5b0490506116d6565b5f60c090505f60c086901c9050640100000000811061159357602081901c90506020820191505b6201000081106115ab57601081901c90506010820191505b61010081106115c257600881901c90506008820191505b601081106115d857600481901c90506004820191505b600481106115ee57600281901c90506002820191505b600281106115fd576001820191505b600160bf830360018703901c018260ff0387901b8161161f5761161e612201565b5b0492506fffffffffffffffffffffffffffffffff831115611645575f93505050506116fc565b5f608086901c840290505f6fffffffffffffffffffffffffffffffff8716850290505f60c089901c90505f60408a901b905082811015611686576001820391505b8281039050608084901b9250828110156116a1576001820391505b8281039050608084901c82146116ba576116b96124fc565b5b8881816116ca576116c9612201565b5b04870196505050505050505b6fffffffffffffffffffffffffffffffff8111156116f7575f9150506116fc565b809150505b92915050565b5f5f82840390505f5f825f0b1261173a578160ff16600a0a60028873ffffffffffffffffffffffffffffffffffffffff160a0261176d565b815f0360ff16600a0a60028873ffffffffffffffffffffffffffffffffffffffff160a8161176b5761176a612201565b5b045b9050806c01000000000000000000000000111561178e575f9250505061187c565b5f866117e6576c0100000000000000000000000082816117b1576117b0612201565b5b046fffffffffffffffffffffffffffffffff6c0100000000000000000000000002816117e0576117df612201565b5b04611805565b6c01000000000000000000000000828161180357611802612201565b5b045b9050866118125780611843565b6c010000000000000000000000006fffffffffffffffffffffffffffffffff82028161184157611840612201565b5b045b93507fffffffffffffffffffffffffffffffffffffffffffffffffffffffffffffffff841115611878575f935050505061187c565b5050505b949350505050565b60405180606001604052805f60028111156118a2576118a1611b69565b5b81526020015f73ffffffffffffffffffffffffffffffffffffffff1681526020015f81525090565b5f604051905090565b5f5ffd5b5f5ffd5b5f5ffd5b5f601f19601f8301169050919050565b7f4e487b71000000000000000000000000000000000000000000000000000000005f52604160045260245ffd5b611925826118df565b810181811067ffffffffffffffff82111715611944576119436118ef565b5b80604052505050565b5f6119566118ca565b9050611962828261191c565b919050565b5f67ffffffffffffffff821115611981576119806118ef565b5b602082029050602081019050919050565b5f5ffd5b5f5ffd5b600381106119a6575f5ffd5b50565b5f813590506119b78161199a565b92915050565b5f73ffffffffffffffffffffffffffffffffffffffff82169050919050565b5f6119e6826119bd565b9050919050565b6119f6816119dc565b8114611a00575f5ffd5b50565b5f81359050611a11816119ed565b92915050565b5f60408284031215611a2c57611a2b611996565b5b611a36604061194d565b90505f611a45848285016119a9565b5f830152506020611a5884828501611a03565b60208301525092915050565b5f611a76611a7184611967565b61194d565b90508083825260208201905060408402830185811115611a9957611a98611992565b5b835b81811015611ac25780611aae8882611a17565b845260208401935050604081019050611a9b565b5050509392505050565b5f82601f830112611ae057611adf6118db565b5b8135611af0848260208601611a64565b91505092915050565b5f60208284031215611b0e57611b0d6118d3565b5b5f82013567ffffffffffffffff811115611b2b57611b2a6118d7565b5b611b3784828501611acc565b91505092915050565b5f81519050919050565b5f82825260208201905092915050565b5f819050602082019050919050565b7f4e487b71000000000000000000000000000000000000000000000000000000005f52602160045260245ffd5b60038110611ba757611ba6611b69565b5b50565b5f819050611bb782611b96565b919050565b5f611bc682611baa565b9050919050565b611bd681611bbc565b82525050565b611be5816119dc565b82525050565b5f819050919050565b611bfd81611beb565b82525050565b606082015f820151611c175f850182611bcd565b506020820151611c2a6020850182611bdc565b506040820151611c3d6040850182611bf4565b50505050565b5f611c4e8383611c03565b60608301905092915050565b5f602082019050919050565b5f611c7082611b40565b611c7a8185611b4a565b9350611c8583611b5a565b805f5b83811015611cb5578151611c9c8882611c43565b9750611ca783611c5a565b925050600181019050611c88565b5085935050505092915050565b5f6020820190508181035f830152611cda8184611c66565b905092915050565b7f4e487b71000000000000000000000000000000000000000000000000000000005f52603260045260245ffd5b5f67ffffffffffffffff821115611d2957611d286118ef565b5b602082029050602081019050919050565b5f81519050611d48816119ed565b92915050565b5f611d60611d5b84611d0f565b61194d565b90508083825260208201905060208402830185811115611d8357611d82611992565b5b835b81811015611dac5780611d988882611d3a565b845260208401935050602081019050611d85565b5050509392505050565b5f82601f830112611dca57611dc96118db565b5b8151611dda848260208601611d4e565b91505092915050565b5f60208284031215611df857611df76118d3565b5b5f82015167ffffffffffffffff811115611e1557611e146118d7565b5b611e2184828501611db6565b91505092915050565b611e33816119dc565b82525050565b5f602082019050611e4c5f830184611e2a565b92915050565b611e5b81611beb565b8114611e65575f5ffd5b50565b5f81519050611e7681611e52565b92915050565b5f60208284031215611e9157611e906118d3565b5b5f611e9e84828501611e68565b91505092915050565b7f4e487b71000000000000000000000000000000000000000000000000000000005f52601160045260245ffd5b5f611ede82611beb565b9150611ee983611beb565b9250828202611ef781611beb565b91508282048414831517611f0e57611f0d611ea7565b5b5092915050565b5f60208284031215611f2a57611f296118d3565b5b5f611f3784828501611d3a565b91505092915050565b5f6dffffffffffffffffffffffffffff82169050919050565b611f6281611f40565b8114611f6c575f5ffd5b50565b5f81519050611f7d81611f59565b92915050565b5f63ffffffff82169050919050565b611f9b81611f83565b8114611fa5575f5ffd5b50565b5f81519050611fb681611f92565b92915050565b5f5f5f60608486031215611fd357611fd26118d3565b5b5f611fe086828701611f6f565b9350506020611ff186828701611f6f565b925050604061200286828701611fa8565b9150509250925092565b5f61201682611f40565b915061202183611f40565b925082820261202f81611f40565b915080821461204157612040611ea7565b5b5092915050565b5f60ff82169050919050565b5f61205e82612048565b915061206983612048565b9250828203905060ff81111561208257612081611ea7565b5b92915050565b5f8160011c9050919050565b5f5f8291508390505b60018511156120dd578086048111156120b9576120b8611ea7565b5b60018516156120c85780820291505b80810290506120d685612088565b945061209d565b94509492505050565b5f826120f557600190506121b0565b81612102575f90506121b0565b8160018114612118576002811461212257612151565b60019150506121b0565b60ff84111561213457612133611ea7565b5b8360020a91508482111561214b5761214a611ea7565b5b506121b0565b5060208310610133831016604e8410600b84101617156121865782820a90508381111561218157612180611ea7565b5b6121b0565b6121938484846001612094565b925090508184048111156121aa576121a9611ea7565b5b81810290505b9392505050565b5f6121c182611beb565b91506121cc83612048565b92506121f97fffffffffffffffffffffffffffffffffffffffffffffffffffffffffffffffff84846120e6565b905092915050565b7f4e487b71000000000000000000000000000000000000000000000000000000005f52601260045260245ffd5b5f61223882611beb565b915061224383611beb565b92508261225357612252612201565b5b828204905092915050565b5f81519050919050565b5f81905092915050565b8281835e5f83830152505050565b5f61228a8261225e565b6122948185612268565b93506122a4818560208601612272565b80840191505092915050565b5f6122bb8284612280565b915081905092915050565b5f6040820190506122d95f830185611e2a565b6122e66020830184611e2a565b9392505050565b5f61ffff82169050919050565b5f62ffffff82169050919050565b5f819050919050565b5f61232b612326612321846122ed565b612308565b6122fa565b9050919050565b61233b81612311565b82525050565b5f6060820190506123545f830186611e2a565b6123616020830185611e2a565b61236e6040830184612332565b949350505050565b61237f816119bd565b8114612389575f5ffd5b50565b5f8151905061239a81612376565b92915050565b5f8160020b9050919050565b6123b5816123a0565b81146123bf575f5ffd5b50565b5f815190506123d0816123ac565b92915050565b6123df816122ed565b81146123e9575f5ffd5b50565b5f815190506123fa816123d6565b92915050565b61240981612048565b8114612413575f5ffd5b50565b5f8151905061242481612400565b92915050565b5f8115159050919050565b61243e8161242a565b8114612448575f5ffd5b50565b5f8151905061245981612435565b92915050565b5f5f5f5f5f5f5f60e0888a03121561247a576124796118d3565b5b5f6124878a828b0161238c565b97505060206124988a828b016123c2565b96505060406124a98a828b016123ec565b95505060606124ba8a828b016123ec565b94505060806124cb8a828b016123ec565b93505060a06124dc8a828b01612416565b92505060c06124ed8a828b0161244b565b91505092959891949750929550565b7f4e487b71000000000000000000000000000000000000000000000000000000005f52600160045260245ffdfea2646970667358221220e1799307dec8467761044987457555f0fffed85577e7b79ffa2787a68e81bd4064736f6c634300081d0033","linkReferences":{}},"methodIdentifiers":{"getWethValueInPools((uint8,address)[])":"339173fd"},"id":25}